:100000000C94D3010C9473100C944C100C94251088
:100010000C94FE0F0C94FB010C94FB010C94D70F75
:100020000C94FB010C949A100C94EC0C0C945B0D4A
:100030000C94FB010C94FB010C94FB010C94FB0150
:100040000C94FB010C94FB010C94FB010C94FB0140
:100050000C94FB010C94FB010C94FB010C948D0F90
:100060000C94FB010C94FB010C94FB010C94FB0120
:100070000C94FB010C94FB010C94FB010C94FB0110
:100080000C94FB010C94FB010C94FB010C94FB0100
:100090000C94FB010C94FB010C94FB010C94FB01F0
:1000A0000C94FB010C94FB010C94FB01000000007C
:1000B0000000004F00000007000700147F147F14A9
:1000C000242A7F2A122313086462364955225000DD
:1000D00000070000001C2241000041221C001408FF
:1000E0003E081408083E08080050300000080808C0
:1000F0000808006060000020100804023E514945D5
:100100003E00427F400042615149462141454B310A
:100110001814127F1027454545393C4A4949300398
:10012000017109073649494936064949291E0036F1
:100130003600000056360000081422410014141442
:100140001414004122140802015109063249794170
:100150003E7E1111117E7F494949363E414141227F
:100160007F4141413E7F494949417F090909013E9B
:100170004149497A7F0808087F00417F41002040BB
:10018000413F017F081422417F404040407F020CE4
:10019000027F7F0408107F3E4141413E7F090909EB
:1001A000063E4151215E7F09192946464949493198
:1001B00001017F01013F4040403F1F2040201F3F81
:1001C0004038403F63140814630708700807615102
:1001D000494543007F41410002040810200041418D
:1001E0007F0004020102044040404040000102043C
:1001F0000020545454787F484444383844444420C0
:10020000384444487F3854545418087E0901020C7D
:100210005252523E7F0804047800447D4000204042
:10022000443D007F1028440000417F40007C0418BA
:1002300004787C0804047838444444387C1414144A
:1002400008081414187C7C080404084854545420EA
:10025000043F4440203C4040207C1C2040201C3C6B
:100260004038403C44281028440C5050503C4464D2
:10027000544C44000836410000007F000000413625
:1002800008000C02040806081C2A080800030C0FCA
:1002900030333C3FC0C3CCCFF0F3FCFF0000000084
:1002A000240027002A002D00300000000000250057
:1002B00028002B002E003100000000002300260043
:1002C00029002C002F000404040404030405020286
:1002D00002020403020202020606060606060404DF
:1002E0000202020404040802011040804010204071
:1002F000804080080204018040201002011080101C
:10030000204040200000000200090F00000304010B
:10031000000C0000000000000000000000000000D1
:10032000000000080B0002020200000904000001A6
:10033000020200000524001001052401010104242B
:100340000206052406000107058103100040090488
:100350000100020A00000007050202400000070534
:1003600083024000000403090412010002EF0201AD
:1003700040FB1F0023000101020301506F6C6F6CF2
:100380007520436F72706F726174696F6E00506F89
:100390006C6F6C7520412D5374617220333255346B
:1003A00000001811351611241FBECFEFDAE0DEBFB2
:1003B000CDBF11E0A0E0B1E0E8EAF4E302C00590AF
:1003C0000D92A836B107D9F723E0A8E6B1E001C045
:1003D0001D92AB32B207E1F711E0C2EDD1E004C0EB
:1003E0002197FE010E94BF16C13DD107C9F70E94A7
:1003F00080110C94471A0C9400005B9887FD5D9A5D
:1004000087FF5D985B9A5B9886FD5D9A86FF5D9895
:100410005B9A5B9885FD5D9A85FF5D985B9A5B981A
:1004200084FD5D9A84FF5D985B9A5B9883FD5D9A7D
:1004300083FF5D985B9A5B9882FD5D9A82FF5D9871
:100440005B9A5B9881FD5D9A81FF5D985B9A5B98F2
:1004500080FD5D9A80FF5D985B9A0895FC01809114
:10046000C001882311F13FB7F89482E08093E9003E
:100470002091F200822F90E01816190614F481E002
:1004800090E0882339F0289844E64093BF014091DA
:10049000F1004083222339F02091F200211103C0A2
:1004A0002BE62093E8003FBF08958FEF9FEF08955C
:1004B0002FB7F89483E08093E9009091E800892FAA
:1004C000807295FF04C09091F20080E4891B2FBFD9
:1004D00008958091B70181110DC082E08093B3012E
:1004E00084E08093B4011092B6011092B50181E0CE
:1004F0008093B70183EB91E00895CF93DF931F9230
:10050000CDB7DEB76983DC01ED91FC910280F38108
:10051000E02D41E050E0BE016F5F7F4F09950F90E5
:10052000DF91CF91089583E08093E9008091F200FC
:10053000882319F08AE38093E80008950E94580206
:1005400090E00895CF93DF931F92CDB7DEB7FC0103
:100550008485958597FD08C02FEF3FEF3587248769
:100560000F90DF91CF910895CE0101960E942E0247
:10057000019719F4898190E0F3CF8FEF9FEFF0CFCF
:100580000F931F93CF93DF931F92CDB7DEB78C01EC
:10059000FC018485958597FF0BC0CE0101960E94D2
:1005A0002E02019771F4898190E0F8019587848784
:1005B000F801848595850F90DF91CF911F910F9160
:1005C00008958FEF9FEFF1CFFC018485958597FD0E
:1005D0000BC09FB7F89482E08093E9008091F2000D
:1005E0009FBF90E0019608959FB7F89482E08093B2
:1005F000E9008091F2009FBF90E008954091AD0125
:100600005091AE012091AB013091AC0142175307DC
:10061000B4F49091E8009570E1F39091E80092FDB8
:1006200019C08093F1008091AD019091AE010196C7
:100630008F739927892B19F48EEF8093E8008091AE
:10064000AD019091AE0101969093AE018093AD0102
:1006500081E0089580E00895DF92EF92FF920F937A
:100660001F93CF93DF93D82E8A01EB017B01E40E19
:10067000F51ECE15DF0559F0D7FE12C0FE0184919C
:100680000E94FE0221968111F4CF0FEF1FEFC801E7
:10069000DF91CF911F910F91FF90EF90DF90089520
:1006A0008881EECF0F931F93CF93DF931F92CDB727
:1006B000DEB782E0898342E450E063E273E080E8E1
:1006C0000E942C030E946902DC0112960D911C917C
:1006D0000115110589F0D801ED91FC910280F3819B
:1006E000E02DBE016F5F7F4FC801099597FD04C0E3
:1006F000F80100851185ECCF89810F90DF91CF91B2
:100700001F910F910895615030F02091F100FC018C
:1007100020830196F8CF289884E68093BF0108953E
:1007200081508F3008F047C0E82FF0E0E656FC4FCC
:100730000C94BF16B703BB03A903AF03B303DB03DA
:10074000DB03DB03BE03C403C803CC03D203DB0318
:10075000D603809180008F778093800008958091E8
:1007600080008F7DF9CF80918000877FF5CF84B5A1
:100770008F7784BD089584B58F7DFBCF80919000E5
:100780008F77809390000895809190008F7DF9CFAE
:1007900080919000877FF5CF8091C0008F77809304
:1007A000C00008958091C0008F7DF9CF8091C20074
:1007B000877F8093C2000895CF93DF93282F30E086
:1007C000F901EC5FFC4F8491F901EB51FD4FD4919D
:1007D000F901EA53FD4FC491CC23A1F081110E948D
:1007E0009003EC2FF0E0EE0FFF1FE854FD4FA591B2
:1007F000B491EC91ED2381E090E009F480E0DF9189
:10080000CF91089580E090E0FACF1F93CF93DF93CC
:10081000282F30E0F901EC5FFC4F8491F901EB5196
:10082000FD4FD491F901EA53FD4FC491CC23A9F0B7
:10083000162F81110E949003EC2FF0E0EE0FFF1FA6
:10084000E655FD4FA591B4918FB7F894EC91111135
:1008500008C0D095DE23DC938FBFDF91CF911F912D
:100860000895DE2BF8CFCF93DF9390E0FC01EB519E
:10087000FD4F24918A539D4FFC0184918823C9F038
:1008800090E0880F991FFC01E456FD4FA591B491AB
:10089000FC01E655FD4FC591D49161110DC09FB784
:1008A000F8948C91209582238C9388812823288327
:1008B0009FBFDF91CF910895623051F49FB7F894B4
:1008C0003C91822F809583238C93E8812E2BEFCF50
:1008D0008FB7F894EC912E2B2C938FBFEACF809199
:1008E00022038F3F61F061E00E94330460E0809159
:1008F00022030E9405048BE193E00197F1F708952C
:10090000809122038F3F61F061E00E94330461E037
:10091000809122030E9405048BE193E00197F1F797
:1009200008953FB7F8948091A7019091A801A091F4
:10093000A901B091AA0126B5A89B05C02F3F19F0C7
:100940000196A11DB11D3FBFBA2FA92F982F88274F
:10095000BC01CD01620F711D811D911D42E0660F2A
:10096000771F881F991F4A95D1F708958F929F92FC
:10097000AF92BF92CF92DF92EF92FF924B015C0158
:100980000E9491046B017C010E9491046C197D0905
:100990008E099F09683E734081059105A8F321E007
:1009A000821A9108A108B10888EEC80E83E0D81E0B
:1009B000E11CF11C81149104A104B10429F7FF90FA
:1009C000EF90DF90CF90BF90AF909F908F90089561
:1009D0008F929F92AF92BF92CF92DF92EF92FF924F
:1009E0000F931F93CF93DF936C017B018A0180915A
:1009F0001501882309F45CC08091C001882309F4A3
:100A000057C08091B20180FF05C08091E0008260F4
:100A10008093E000E801B12C8AEFA82E93E0892EA4
:100A20002AE3922E209711F4BB20D9F10E9458029C
:100A300081110AC0AA94AA20D9F161E070E080E097
:100A400090E00E94B604EECF8C171D0611F00CF05A
:100A50008C2F9FB7F8948092E9002091E80025FD43
:100A600002C09FBFDFCF282F30E0C21BD30BF7019E
:100A7000815020F041914093F100FACFE20EF31E35
:100A8000BB2021F09092E800B12CEBCF8091E800E0
:100A900085FDE7CF9092E800BB24B394209709F33B
:100AA000F3CF5D9884E68093B101101611063CF0F7
:100AB00081E090E0F6019383828310E000E0C801BA
:100AC000DF91CF911F910F91FF90EF90DF90CF902A
:100AD000BF90AF909F908F90089508952E98269A7A
:100AE0002D98259A2A98229A2998219A80EA80930B
:100AF000800081E18093810080E991E090938700FC
:100B000080938600109289001092880010928B00CA
:100B100010928A0008950F931F93CF93DF938C0157
:100B2000EB0180917701811105C081E0809377010D
:100B30000E946E0580E017FF04C011950195110910
:100B400081E0013991E0190714F000E911E01093F8
:100B50008B0000938A00882329F12A9A229A809197
:100B60007701811105C081E0809377010E946E05B5
:100B700080E0D7FF04C0D195C195D10981E0C1398A
:100B800091E0D90714F0C0E9D1E0D0938900C09377
:100B90008800882349F0299A219ADF91CF911F91EB
:100BA0000F9108952A98DACF2998F6CF9FB19170C6
:100BB0008CB186FB882780F98927209176013091B6
:100BC0007501409173015091740128273927231B27
:100BD000330B240F351F3093740120937301309130
:100BE000750120917601381729F0291719F021E0B5
:100BF00020937201809375019093760108958091FE
:100C00006C01811145C081E080936C0124982C9A7D
:100C10006A98729A6E98769A8098889A80936800FB
:100C200090E190936B008BBB86ED95E0909309016A
:100C30008093080180916A008F7C806180936A00B4
:100C4000EE9A8CB182FB882780F98093710193B171
:100C50008091710192959170892780937001109213
:100C60006F0110926E0110926D018FB181708093AF
:100C700076019CB18091760196FB992790F989279E
:100C80008093750110927401109273011092720199
:100C900008957F928F929F92AF92BF92CF92DF92F0
:100CA000EF92FF920F931F93CF93DF93FC01228566
:100CB0003385232B09F476C06B01EC0110E08C85A1
:100CC0001817E8F4E12EF12C8E859F85F701EE0FC1
:100CD000FF1FEC0DFD1D91838083EA85FB85EE0DE2
:100CE000FF1D61E080810E940504EA85FB85EE0D11
:100CF000FF1D61E080810E9433041F5FE0CF83E22B
:100D000090E00197F1F710E08C851817A0F4E12E20
:100D1000F12CEA85FB85EE0DFF1D60E080810E94CD
:100D20003304EA85FB85EE0DFF1D60E080810E94A3
:100D300005041F5FE9CF0E9491044B015C010E94F2
:100D40009104AB01BC01481959096A097B098E85D8
:100D50009F85B0E0A0E0481759076A077B0710F5A8
:100D60000E9491047B01E818F908712C8C85781693
:100D700030F7072D10E0EA85FB85E00FF11F808139
:100D80000E94DC03892B61F4000F111FF601E00FB4
:100D9000F11F80819181E816F90610F4F182E0825A
:100DA0007394E4CFDF91CF911F910F91FF90EF905B
:100DB000DF90CF90BF90AF909F908F907F900895DD
:100DC000CF93DF93EC01888581110EC0898591E076
:100DD00098879A8562E0911101C060E00E94330417
:100DE0008FE090E00197F1F789850E94DC033B8555
:100DF00021E03817190609F420E0822FDF91CF9106
:100E00000895289A209A08952898209A08955F9224
:100E10006F927F928F929F92AF92BF92CF92DF920A
:100E2000EF92FF920F931F93CF93DF935C01D62F26
:100E3000C42FF22E132F0E9404078D2F806B0E9467
:100E4000FD018C2F82958F7080610E94FD018C2F97
:100E50008F700E94FD010E940107CF2DD12F0C0F32
:100E60001D2F111D95E0692EC017D10709F444C04C
:100E70007990872D8052990B9C01629EC001639EE0
:100E8000900D1124769C40011124F12CE12C9C0141
:100E900024553F4F69013FE1371508F5F601EE0D86
:100EA000FF1DE491F0E084E0F595E7958A95E1F780
:100EB000E457FD4F5490852D0E94FD01852D0E9421
:100EC000FD019FEFE91AF90A25E0E216F10419F78E
:100ED00080E00E94FD0180E00E94FD01C5CF87E017
:100EE000E0E08715F8F2F401EE0DFF1DE254FF4F2C
:100EF000EA0DFB1DE081D6CFDF91CF911F910F91BD
:100F0000FF90EF90DF90CF90BF90AF909F908F9029
:100F10007F906F905F9008955F926F927F928F9213
:100F20009F92AF92BF92CF92DF92EF92FF920F9378
:100F30001F93CF93DF935C01D62FC42FF22E132F74
:100F40000E9404078D2F806B0E94FD018C2F8295DB
:100F50008F7080610E94FD018C2F8F700E94FD01B7
:100F60000E940107CF2DD12F0C0F1D2F111D85E0E1
:100F7000682EC017D10709F440C07990872D8052A0
:100F8000990B9C01629EC001639E900D1124769C7A
:100F900040011124F12CE12C9C0124553F4F6901A3
:100FA0003FE13715E8F4F601EE0DFF1DE491EF7017
:100FB000F0E0E457FD4F5490852D0E94FD01852DF2
:100FC0000E94FD019FEFE91AF90A25E0E216F104FB
:100FD00039F780E00E94FD0180E00E94FD01C9CF49
:100FE00087E0E0E0871518F3F401EE0DFF1DE254F1
:100FF000FF4FEA0DFB1DE081DACFDF91CF911F910A
:101000000F91FF90EF90DF90CF90BF90AF909F90A7
:101010008F907F906F905F900895282F21FB0EF0A6
:10102000209820FB0EF028980EF4289A21FB0EF44D
:10103000209A0895282F21FB0EF0559820FB0EF0E2
:101040005D980EF45D9A21FB0EF4559A08958091F7
:101050009C0190919D01019709F06CC00E94FF05D1
:10106000F89480916E0190916F0110926F0110922F
:101070006E0178940E94FF05F8948091730190911D
:101080007401109274011092730178940E94FF050C
:10109000F89460916E0170916F017894072E000CA6
:1010A000880B990B0E94EB1760936801709369019C
:1010B00080936A0190936B010E94FF05F894609100
:1010C0007301709174017894072E000C880B990BB2
:1010D0000E94EB17609390017093910180939201AD
:1010E00090939301209168013091690140916A01C8
:1010F00050916B010E94D51620E030E040E05FE3A4
:101100000E947C1820E038E44EEE55E40E9441171E
:101110006093940170939501809396019093970149
:1011200070E060E090E080E00E948B0510929D01ED
:1011300010929C0108950E94FF05F89460916E0141
:1011400070916F017894072E000C880B990B0E9408
:10115000EB17609368017093690180936A01909323
:101160006B010E94FF05F894609173017091740106
:101170007894072E000C880B990B0E94EB17609354
:10118000900170939101809392019093930120912B
:1011900068013091690140916A0150916B010E9490
:1011A000D51620E030E040E05FE30E947C1820E0AC
:1011B00038E44EEE55E40E94411760939401709319
:1011C000950180939601909397010895CF93DF93B3
:1011D000EC0188810E941A0889810E940D08E9EEBD
:1011E000F0E010828C818093F0008B8180838A8173
:1011F0008093E200DF91CF910895FC01A2EEB0E070
:101200008C9182831C92A9EEB0E08C9183831C9216
:10121000A0EFB0E08C9184831C9220E05D99216066
:1012200055992260208320E028992160209922602E
:1012300021835D98559A0895CF92DF92EF92FF92A5
:101240000F93CF93DF93EC017C0184E0E80EF11C57
:10125000C7010E94FD086E0184E1C80ED11C08E0A0
:10126000960143E162E0CE010E948C07960143E1C2
:1012700063E0CE010E9407076E0189E2C80ED11C0F
:10128000960143E165E0CE010E948C07960143E19F
:1012900066E0CE010E940707C701DF91CF910F9151
:1012A000FF90EF90DF90CF900C94E608CF92DF9202
:1012B000EF92FF920F93CF93DF93EC017C0184E0D8
:1012C000E80EF11CC7010E94FD086E0184E1C80E02
:1012D000D11C0BE0960142E060E0CE010E948C0739
:1012E000960142E061E0CE010E9407076E0189E2AB
:1012F000C80ED11C960142E062E0CE010E948C072C
:10130000960142E063E0CE010E9407076E018EE382
:10131000C80ED11C960142E064E0CE010E948C0709
:10132000960142E065E0CE010E9407076E0183E569
:10133000C80ED11C960142E066E0CE010E948C07E7
:10134000960142E067E0CE010E940707C701DF91E6
:10135000CF910F91FF90EF90DF90CF900C94E60823
:10136000EF92FF920F931F93CF93DF938C017C0139
:1013700084E0E80EF11CC7010E94FD080E940407EA
:1013800082E00E94FD01C0E00E9404078C2F806B68
:101390000E94FD0180E10E94FD010E940107D0E052
:1013A00080E00E94FD01DF5FD038D1F7CF5FC83009
:1013B00059F7C7010E94E608F8011286DF91CF9124
:1013C0001F910F91FF90EF900895AF92BF92CF922F
:1013D000DF92EF92FF920F931F93CF93DF937C01E5
:1013E000122F683008F043C0423008F040C088E057
:1013F000861B8217D0F12223D1F1C42FCC0FC40F4A
:10140000DCE06D9FD02D1124DD5E670124E1C20E6A
:10141000D11C862F90E025E1429F800D911D112463
:10142000C80ED91E570184E0A80EB11CC5010E9448
:10143000FD0862E06C0F012F96014D2FC7010E943D
:101440008C0763E06C0F96014D2FC7010E940707C0
:10145000C501DF91CF911F910F91FF90EF90DF9029
:10146000CF90BF90AF900C94E608182FC6CFDF91B5
:10147000CF911F910F91FF90EF90DF90CF90BF9091
:10148000AF900895AF92BF92CF92DF92EF92FF920A
:101490000F931F93CF93DF937C01D22F6B3008F013
:1014A00040C04430F0F58BE0861B8217C0F1222348
:1014B000C1F1142F110FCCE06C9FC02D1124CE5F11
:1014C000670124E1C20ED11C862F90E025E1429FE6
:1014D000800D911D1124C80ED91E570184E0A80E5D
:1014E000B11CC5010E94FD080D2F96014C2F612FE4
:1014F000C7010E948C0761E0610F96014C2FC70164
:101500000E940707C501DF91CF911F910F91FF90B6
:10151000EF90DF90CF90BF90AF900C94E608D82F5B
:10152000C8CFDF91CF911F910F91FF90EF90DF9087
:10153000CF90BF90AF900895089590E080E0089517
:101540000E94321ADF92EF92FF920F931F93CF9374
:10155000DF93EC01F62EE42ED22E898581112DC069
:101560005B98539A5A98529A85E38A95F1F700004E
:101570005A9A529AA5E3AA95F1F70000CE010E946B
:10158000B0098E010C5F1F4FC8010E94FD080E9428
:10159000040781EA0E94FD0188EC0E94FD0181E8B8
:1015A0000E94FD018FEF0E94FD018FEA0E94FD0164
:1015B000C8010E94E60881E089878A85882319F09E
:1015C000CE010E94B0092A893B89C901959587956A
:1015D0008C0F9D1FE889F98920FF08C0DC012D913F
:1015E0003C91E20FF31F0190F081E02D2D2D4E2D47
:1015F0006F2DDF91CF911F910F91FF90EF90DF90B2
:101600000994CF93DF93DC01A354BF4F2C91283072
:1016100008F5EC01C454DF4FE881E531D8F4AC01A2
:1016200075E1279F400D511D1124E40FF52FF11D89
:10163000648BFC012385211105C021E04C91688158
:101640000E94A20A88818F5F888381E090E0DF9109
:10165000CF91089590E080E0FACFAF92BF92CF9201
:10166000DF92EF92FF920F931F93CF93DF9382EE5F
:10167000E82EF12CF70100811082C9EED0E0B8808D
:10168000188290EFC92ED12CF601A080108220E0A4
:101690002899216020992260822F2098289A90E131
:1016A0009A95F1F713B10E940D081882F601A082F5
:1016B000B882F7010083812F80958170DF91CF91EF
:1016C0001F910F91FF90EF90DF90CF90BF90AF9060
:1016D0000895AF92BF92CF92DF92EF92FF920F9355
:1016E0001F93CF93DF9382EEE82EF12CF701D08188
:1016F000108209EE10E0F801B080108290EFC92E40
:10170000D12CF601A080108220E05D9921605599CE
:101710002260822F55985D9A90E19A95F1F7C9B1B0
:101720000E941A08F8011082F601A082F801B08226
:10173000F701D0838C2F90E025E0959587952A9529
:10174000E1F7809590958170DF91CF911F910F9176
:10175000FF90EF90DF90CF90BF90AF90089581E21F
:1017600092E00E94E0068823C9F089E192E00E949D
:10177000690B882399F08091A0019091A1010097B5
:1017800039F481E090E09093A1018093A001089545
:10179000019721F41092A1011092A0010895BF9227
:1017A000CF92DF92EF92FF920F931F93CF93DF932D
:1017B0008C01EA016C012DEBC20ED11CF6013081C7
:1017C0003830D8F57C01FCEBEF0EF11CF70180817D
:1017D000853198F525E1281B90E02417150620F4A3
:1017E000C5E1D0E0C81BD90BF5E13F9F800D911DED
:1017F0001124AE0198012C5E3F4F820F931F0E946F
:10180000371ABC2EF8018385811108C02C2FF601F0
:101810004081F7016081C8010E94A20AF70180811E
:101820008B0D8083CE01DF91CF911F910F91FF909F
:10183000EF90DF90CF90BF900895D0E0C0E0F2CF5E
:101840008F929F92AF92BF920F931F93CF93DF938C
:10185000CDB7DEB7A1970FB6F894DEBF0FBECDBFF0
:1018600019A2423008F44AE08E010F5D1F4F842E0A
:10187000912CB12CA12CA50194010E948E16E62F6B
:10188000B901CA01EA3044F5E05DD801EE938D015B
:10189000232B242B252B79F790E080E0109769F01B
:1018A000FD0101900020E9F73197AF014A1B5B0B66
:1018B000BD018DE292E00E94CF0BA1960FB6F89485
:1018C000DEBF0FBECDBFDF91CF911F910F91BF90B3
:1018D000AF909F908F900895E95CD7CF42E050E0A1
:1018E00064E671E08DE292E00C94CF0BCF93DF932E
:1018F000BC0190E080E04AE00E94200CEC010E94D4
:101900006E0C8C0F9D1FDF91CF910895CF92DF92C7
:10191000EF92FF921F93CF93DF93C3E0C093E9024E
:101920001092EA0280918A0190918B010E94760CBC
:10193000D5E0D093E90211E01093EA0280918E0184
:1019400090918F010E94760C1092E9021093EA02A6
:1019500080918601909187010E94760CD093E902D4
:10196000D2E0D093EA0280918C0190918D010E9487
:10197000760C1092E902D093EA028091880190914E
:1019800089010E94760C1092E902C093EA02C0908D
:101990008401D09085010D2C000CEE08FF084AE070
:1019A000C701B601F7FE0DC06DE28DE292E00E9424
:1019B000010B66277727CB016C197D098E099F09DA
:1019C0004AE00E94200CDF91CF911F91FF90EF9091
:1019D000DF90CF900C946E0C1F920F920FB60F9267
:1019E00011248F939F938091E1009091E100937F68
:1019F0009093E10083FF0FC01092E90091E0909373
:101A0000EB001092EC0092E39093ED001092C00175
:101A100098E09093F00082FF22C093E09093E90059
:101A20009091F200992319F09AE39093E800909135
:101A3000B101992341F09091B10191509093B1017E
:101A4000911101C05D9A9091BF01992341F090914D
:101A5000BF0191509093BF01911101C0289A84FF5A
:101A600018C08091E2008E7E81608093E2008091B8
:101A7000E1008F7E8093E1008091B2018E7E8061D3
:101A80008093B2019F918F910F900FBE0F901F9086
:101A9000189580FFF7CF8091E2008E7E8061809361
:101AA000E2008091E1008E7E8093E1008091B2019E
:101AB0008E7E8160E5CF1F920F920FB60F92112498
:101AC000CF92DF92EF92FF920F931F932F933F934A
:101AD0004F935F936F937F938F939F93AF93BF9336
:101AE000EF93FF93CF93DF93CDB7DEB76C97DEBF55
:101AF000CDBF1092E9008091E80083FF25C068E027
:101B0000CE0145960E94830382EF8093E8008D8981
:101B100087FF39C09091E80090FFFCCF982F907616
:101B200009F034C19E894F89588D2F89F88C911105
:101B300031C0803861F58091B0018093F10010923E
:101B4000F1008EEF8093E8006C960FB6F894DEBF3C
:101B50000FBECDBFDF91CF91FF91EF91BF91AF91BC
:101B60009F918F917F916F915F914F913F912F91B5
:101B70001F910F91FF90EF90DF90CF900F900FBECD
:101B80000F901F9018959EEF9093E800C7CF10928A
:101B9000F100D5CF913059F48111D3CF41305105A7
:101BA00081F68091B0018D7F8093B001CACF9330D0
:101BB00049F48111C6CF4130510519F68091B00129
:101BC0008260F2CF953041F48091E80080FFFCCF35
:101BD00020682093E300B5CF963009F0A9C00B8DA3
:101BE0001C8D22E01092E9001092AE011092AD011E
:101BF000F2122EC01092AC011092AB010E9452035F
:101C00001F8299E09983FA8291E09E8390EA9887F7
:101C10009AEF99872091AD013091AE01275F3F4F38
:101C20003C832B838D831092E9001092AE011092B9
:101C3000AD011093AC010093AB0149E050E0BE014F
:101C40006F5F7F4F80E00E942C030E94520379CF88
:101C50001093AC010093AB010E946902DC01129663
:101C60000D911C910115110509F451C1D801ED9197
:101C7000FC910480F581E02DBE016B5E7F4FC801B1
:101C80000995009709F03EC1F80100851185EACF5A
:101C9000F3E0FF120EC08F89882309F440C0823020
:101CA00061F440E862E18EE893E00E94E510811162
:101CB00048CF81E28093EB0047CF813029F440E8A0
:101CC00062E18BE793E0F1CF833099F70E946902DC
:101CD000DC011296ED90FC908E010F5F1F4F6801A2
:101CE000E114F10479F0D701ED91FC910680F781C0
:101CF000E02DB801C7010995080F111DF701E08417
:101D0000F184EECFD8011C92F60101900020E9F792
:101D10003197BF016C197D0940E0C601C6CF65E669
:101D200073E0FB01449150E080E80E942C0309CF4E
:101D3000973009F4BECF983021F481E08093F10010
:101D400000CF993009F0FDCE837009F0B2CFE2E206
:101D5000F1E081E031E096E32191222371F080935C
:101D6000E9003093EB00DF0111972C912093EC00F8
:101D70009093ED008F5F873079F78EE78093EA00CC
:101D80001092EA008F898093C001DBCE8B8D9C8DF1
:101D90001092E9001092AE011092AD019093AC0147
:101DA0008093AB01898D811192C08E899D89913A72
:101DB00049F4813209F07DCF47E050E06EE071E0F8
:101DC00080E0B3CF913209F074CF833269F48F8908
:101DD000988DB0E0A0E080930A0190930B01A0934E
:101DE0000C01B0930D01ADCE803269F48091E80012
:101DF00082FFFCCF67E08EE091E00E9483038BEFCF
:101E00008093E8009ECE823209F09BCE8F8980932A
:101E10001501EEEFFFE7859194918B3F9C4D51F1B9
:101E2000E0E0F8E080910E0190910F01A091100187
:101E3000B0911101803B9440A105B105F1F480916E
:101E4000150180FD1AC0EE3F8AE0F80789F587E7A3
:101E500097E791838083809160008093AF0188E150
:101E60009BE00FB6F894A895809360000FBE909306
:101E7000600067CEEEEFFAE0D5CF808191818737A1
:101E8000974709F05ECEA8958091600088618093A5
:101E900060008091AF0180936000EE3F2AE0F2077E
:101EA00089F08091FE0A9091FF0A9183808349CE48
:101EB000808191818737980751F29093FF0A809330
:101EC000FE0AC5CF1092FF0A1092FE0A3ACE0E9477
:101ED0006902DC0112960D911C910115110509F49E
:101EE000E8CED801ED91FC910190F081E02DBE018A
:101EF0006B5E7F4FC8010995811123CEF8010085E3
:101F00001185EBCF181619060CF41BCED2CEF1E0DA
:101F1000FF12BECE69E673E004CF1F920F920FB698
:101F20000F9211242F933F938F939F93AF93BF935F
:101F30008091A3019091A401A091A501B091A60167
:101F40003091A20123E0230F2D3758F50196A11DF2
:101F5000B11D2093A2018093A3019093A401A093AB
:101F6000A501B093A6018091A7019091A801A0912D
:101F7000A901B091AA010196A11DB11D8093A701ED
:101F80009093A801A093A901B093AA01BF91AF912A
:101F90009F918F913F912F910F900FBE0F901F90A7
:101FA000189526E8230F0296A11DB11DD2CF1F92CE
:101FB0000F920FB60F9211242F933F934F935F937D
:101FC0006F937F938F939F93AF93BF93EF93FF9301
:101FD000E0910801F09109010995FF91EF91BF91FE
:101FE000AF919F918F917F916F915F914F913F91B1
:101FF0002F910F900FBE0F901F9018951F920F9268
:102000000FB60F9211242F933F934F935F936F93CB
:102010007F938F939F93AF93BF93EF93FF93E09141
:102020000601F09107010995FF91EF91BF91AF91E2
:102030009F918F917F916F915F914F913F912F91E0
:102040000F900FBE0F901F9018951F920F920FB612
:102050000F9211242F933F934F935F936F937F932E
:102060008F939F93AF93BF93EF93FF93E0910401FE
:10207000F09105010995FF91EF91BF91AF919F916B
:102080008F917F916F915F914F913F912F910F9021
:102090000FBE0F901F9018951F920F920FB60F92C0
:1020A00011242F933F934F935F936F937F938F935D
:1020B0009F93AF93BF93EF93FF93E0910201F09151
:1020C00003010995FF91EF91BF91AF919F918F917E
:1020D0007F916F915F914F913F912F910F900FBE24
:1020E0000F901F9018951F920F920FB60F92112408
:1020F0002F933F934F935F936F937F938F939F9310
:10210000AF93BF93EF93FF93E0910001F091010132
:102110000995FF91EF91BF91AF919F918F917F9121
:102120006F915F914F913F912F910F900FBE0F9044
:102130001F9018951F920F920FB60F9211242F9394
:102140003F934F936F937F938F939F938CB1282FDF
:1021500030E03595279535952795422F417083B10D
:1021600090E064E0959587956A95E1F78227817004
:10217000209171019091700160916E0170916F01D9
:1021800028279427291B330B260F371F30936F0105
:1021900020936E012091700190917101281729F010
:1021A000941719F091E090936D0180937001409322
:1021B00071019F918F917F916F914F913F912F91DD
:1021C0000F900FBE0F901F901895EF92FF920F93F4
:1021D0001F93CF93DF93F82E192FE62E042F81E063
:1021E000860F880F0E94FE0283E00E94FE02CF2D20
:1021F000D12FEC0EFD2EF11CCE15DF05B9F007FF37
:1022000013C0FE0184910E94FE02182F80E00E94FC
:10221000FE02812321968111EFCFDF91CF911F9193
:102220000F91FF90EF9008958881EDCF81E0F5CF79
:10223000CF93DF93E1ECF1E01382128288EE93E01A
:10224000A0E0B0E084839583A683B7838CE291E01D
:10225000918380838FEF9FEF95878487E5E1F3E09B
:1022600013821282158214821782168211861086BA
:102270001386128682E691E091838083CDE2D2E0DC
:102280001B821A8248EA50E060E270E081E492E04A
:102290000E94401A10921403109213038CE199E0EB
:1022A0009D878C871F861E8685EE99E0998B888B8B
:1022B0001B8A1A8A81E08A8726E531E039832883E0
:1022C000E1E2F2E01282158210869EE09187828719
:1022D000838780E591E091838083E9E1F2E01282D7
:1022E00015828AE491E091838083E1E1F2E0128239
:1022F00015828EE391E091838083DF91CF910895E1
:10230000CF93DF93CDB7DEB7C556D1090FB6F8949A
:10231000DEBF0FBECDBF789484B5826084BD84B526
:10232000816084BD85B5826085BD85B5816085BDD0
:1023300080916E00816080936E0010928100809188
:102340008100826080938100809181008160809310
:102350008100809180008160809380008091910055
:1023600082608093910080919100816080939100C0
:10237000809190008160809390008091C100846082
:102380008093C1008091C10082608093C1008091E0
:10239000C10081608093C1008091C30081608093FF
:1023A000C3008091C00082608093C0008091C20011
:1023B00081608093C20080917A00846080937A006B
:1023C00080917A00826080937A0080917A008160A7
:1023D00080937A0080917A00806880937A001092CE
:1023E000C0011092B0011092B2018091D7008160BB
:1023F0008093D70080EA8093D80089B5806189BD39
:1024000089B5826089BD89B5082F0170A2960FAF8A
:10241000A29780FFF8CF61E070E080E090E00E943A
:10242000B6048091D8008F7C80618093D800809121
:10243000E000807F8093E0008091E1008E7E8093B9
:10244000E1008DE08093E200559A209A85E0ECE16E
:10245000F1E0DE01119601900D928A95E1F710925C
:1024600018031092170310921A0310921903109276
:102470001C0310921B0310921E0310921D03109256
:1024800026031092250385E08093210380911F038A
:1024900090912003892BC9F080E090912103891746
:1024A00008F066C0282F30E0E0911F03F091200370
:1024B000E20FF31F41E050E04C0F5D1F240F351F6A
:1024C000D9019C9190838F5FE8CF85E090E00E94D6
:1024D0000D199093200380931F03892BE9F680ED5B
:1024E00097E0909324038093230310921403109297
:1024F000130386E599E090933A0280933902109293
:102500003C0210923B0282E49AE090933E02809358
:102510003D021092400210923F0281E08093370208
:1025200068EE73E080E090E00E94B604EDE8EE2EE5
:10253000F12C8091190390911A03892BE9F40091F1
:10254000210310E0C801880F991F0E940D19909374
:102550001A0380931903009709F4ADC0FC0190E0C1
:1025600080E08017910744F4119211920196F9CFFF
:102570008BE080932203B3CF8091170390911803CF
:10258000892BE9F40091210310E0C801880F991FFD
:102590000E940D199093180380931703009709F474
:1025A0008AC02091230330912403FC0190E080E055
:1025B0008017910724F4219331930196F9CF10E00D
:1025C00000E00E948004BE016F5B7F4F85E193E0D5
:1025D0000E9449060E946F0480902103912CFE0105
:1025E00031965F019E012F5D3F4FBE016F5B7F4FB4
:1025F0003901DF0150E040E04815590524F5FB01A1
:1026000081919191BF010115110599F0F301C080ED
:10261000D180C816D90668F0CD90DC9011978C1542
:102620009D0568F04F5F5F4F1296F2E06F0E711CD0
:10263000E3CFF301918380830115110569F71196AA
:102640009C938E93EFCF0F5F1F4F0A30110509F057
:10265000B8CFA0911703B0911803009119031091FE
:102660001A0390E080E0409121034817190619F100
:1026700014F1F501419151915F01F801619171915E
:102680008F016417750730F4BF0162507109FB01B7
:1026900051834083F901419151919F016D917D9149
:1026A0004617570730F4BD0162507109FB01518391
:1026B00040830196D8CF68EC70E088E39FEF0E94DA
:1026C0008B05F1E0EF1AF10809F033CF70E060E01C
:1026D00090E080E00E948B0566E970E080E090E089
:1026E0000E94B60422242394312C0091A001109161
:1026F000A1010115110559F00130110509F4C5C1F9
:1027000080E090E0892B89F30E940000EECF0E94C8
:10271000860C8091170390911803892B09F454C0FB
:102720008091190390911A03892B09F44DC00E94DE
:10273000800466E871E085E193E00E9449060E940A
:102740006F0460902103712C46E8C42E41E0D42E22
:102750008090190390901A03A0901703B09018036B
:10276000F12CE12CE614F7047CF5D401ED91FD91F8
:102770004D01D5018D919D915D01E81BF90BD1F0C3
:10278000D6012D913C9150E040E0281B390B4109C6
:102790005109A8EEB3E00E9483169F0150E040E08B
:1027A0000E946416293EB3E03B0714F028EE33E0A4
:1027B00037FF02C030E020E0F601219331936F0132
:1027C000FFEFEF1AFF0ACECFE091210336E8A32EE8
:1027D00031E0B32ED12CC12C50E040E0412C512CE3
:1027E0003201912CF0E0EF1701F1D501ED90FD9051
:1027F0005D01B9ECEB16F104A4F423E3E216F10455
:1028000054F09601D7010E94C516460E571E681E49
:10281000791E4E0D5F1DFF5F38E1C31A3CEFD30AEE
:10282000E2CFA2969FACA297ECCF911021C1E150CC
:10283000FF0B44EF51E0E49FC001E59F900DF49F32
:10284000900D112420912503309126032817390774
:102850004CF088EE93E0E89F8001E99F100DF89F0F
:10286000100D1124109385010093840124E630E0BB
:10287000D8010E94CD1620EA3FE040E050E00E94DF
:102880006416CA01B9010E94EB1720E030E048EC61
:1028900052E40E9441172B013C014092800150926A
:1028A000810160928201709283019801ACE9BFEFCF
:1028B0000E94C51620EA3FE040E050E00E94641606
:1028C000CA01B9016C597F4F8F4F9F4F0E94EB1780
:1028D00020E030E048EC52E40E9441174B015C01DB
:1028E000005D174080917E0190917F01D801A81B67
:1028F000B90BBD01660F771F6A0F7B1F072E000CF7
:10290000880B990B0E94EB176B017C01B801012E1B
:10291000000C880B990B0E94EB1720E030E040E898
:102920005EE30E947C189B01AC01C701B6010E94C6
:10293000D5160E94B31710937F0100937E01072ED6
:10294000000C880B990B0E94EB176B017C0120E0B7
:1029500030E048EC52E4C501B4010E947C18A69610
:102960006CAF7DAF8EAF9FAFA697A7019601C50153
:10297000B4010E947C189B01AC01A6966CAD7DADA4
:102980008EAD9FADA6970E94D4160E94B3178B01FF
:102990006536710514F004E610E017FF02C010E080
:1029A00000E020E030E048EC52E4C301B2010E94B4
:1029B0007C184B015C01A7019601C301B2010E9482
:1029C0007C189B01AC01C501B4010E94D5160E9480
:1029D000B317CB016536710514F084E690E097FFDC
:1029E00002C090E080E0B8010E948B0580918601D2
:1029F00090918701883E9340C0F180918E01909123
:102A00008F01883E934088F12FB7F8948091A301FD
:102A10009091A401A091A501B091A6012FBF409172
:102A20007A0150917B0160917C0170917D018C0154
:102A30009D01041B150B260B370BB901A801443669
:102A400051056105710588F080937A0190937B01AF
:102A5000A0937C01B0937D018091780190917901E0
:102A6000019690937901809378010E94AF0B48CE34
:102A70009A0150E040E0C301B2010E948E16890124
:102A80003093260320932503EDCE0E94860C81E22D
:102A900092E00E94E006882309F44BC010939F0146
:102AA00000939E0110939D0100939C0110929B0145
:102AB00010929A0100919E0110919F010230110520
:102AC00009F47FC00330110509F484C001301105F9
:102AD00061F60E949B08E0909A01F0909B01E1143E
:102AE000F10409F44DC051E0E516F10409F0BDCF41
:102AF0000E94270864E670E08CE99FEF0E948B0536
:102B000020E030E046E154E4609190017091910141
:102B100080919201909193010E94771887FDA5CF33
:102B200010929B0110929A01F0929D01E0929C01FB
:102B30009CCF89E192E00E94690B882359F022E042
:102B400030E030939F0120939E0110939D010093EC
:102B50009C01B0CF81E192E00E942D0B882309F403
:102B6000A9CF43E050E050939F0140939E01109302
:102B70009D0100939C0110929901109298019ACFA7
:102B80000E94270864E670E084E690E00E948B05CE
:102B90002AE939E949E95EE3609194017091950170
:102BA00080919601909197010E94771887FD5DCFE3
:102BB00010939B0100939A0110939D0100939C0137
:102BC00054CF0E94270868EC70E084E690E00E94F1
:102BD0008B054BCF0E949B080091980110919901A1
:102BE0000115110509F10130110509F03ECF0E94D0
:102BF000270864E670E08CE99FEF0E948B0520E0D7
:102C000030E046E954E46091900170919101809127
:102C10009201909193010E94771887FD26CF109220
:102C2000990110929801C8CF0E94270864E670E0CD
:102C300084E690E00E948B052AE939E949E95EE3E0
:102C40006091940170919501809196019091970106
:102C50000E94771887FD09CF309299012092980140
:102C600030929D0120929C0100CF84E491E09093EA
:102C700016038093150380911F0390912003009702
:102C800011F00E94A9198091190390911A030097DD
:102C900011F00E94A91980911D0390911E030097C5
:102CA00011F00E94A91980911703909118030097C1
:102CB00011F00E94A91980911B0390911C030097A9
:102CC00011F00C94A9190895052E97FB1EF4009499
:102CD0000E947B1657FD07D00E948E1607FC03D07A
:102CE0004EF40C947B1650954095309521953F4FAE
:102CF0004F4F5F4F089590958095709561957F4FE8
:102D00008F4F9F4F08950E94B016A59F900DB49FBE
:102D1000900DA49F800D911D11240895A1E21A2EFB
:102D2000AA1BBB1BFD010DC0AA1FBB1FEE1FFF1F6F
:102D3000A217B307E407F50720F0A21BB30BE40BBF
:102D4000F50B661F771F881F991F1A9469F7609506
:102D50007095809590959B01AC01BD01CF010895C0
:102D6000A29FB001B39FC001A39F700D811D1124CC
:102D7000911DB29F700D811D1124911D0895EE0FBC
:102D8000FF1F0590F491E02D09940E94B0163323A3
:102D900012F48A1B9B0B0C94CF160E94B016B7FF3F
:102DA0000895821B930B08955058BB27AA270E94B1
:102DB000EC160C943D180E942F1838F00E9436181B
:102DC00020F039F49F3F19F426F40C942C180EF4DB
:102DD000E095E7FB0C942618E92F0E944E1858F353
:102DE000BA17620773078407950720F079F4A6F5F0
:102DF0000C9470180EF4E0950B2EBA2FA02D0B0139
:102E0000B90190010C01CA01A0011124FF27591B2F
:102E100099F0593F50F4503E68F11A16F040A22F35
:102E2000232F342F4427585FF3CF469537952795A6
:102E3000A795F0405395C9F77EF41F16BA0B620BA5
:102E4000730B840BBAF09150A1F0FF0FBB1F661FEC
:102E5000771F881FC2F70EC0BA0F621F731F841F2F
:102E600048F4879577956795B795F7959E3F08F055
:102E7000B0CF9395880F08F09927EE0F9795879517
:102E800008950E9455170C943D180E94361858F06A
:102E90000E942F1840F029F45F3F29F00C94261867
:102EA00051110C9471180C942C180E944E1868F350
:102EB0009923B1F3552391F3951B550BBB27AA27F3
:102EC00062177307840738F09F5F5F4F220F331F2D
:102ED000441FAA1FA9F335D00E2E3AF0E0E832D0F5
:102EE00091505040E695001CCAF72BD0FE2F29D0F8
:102EF000660F771F881FBB1F261737074807AB07CA
:102F0000B0E809F0BB0B802DBF01FF2793585F4F3E
:102F10003AF09E3F510578F00C9426180C947118E5
:102F20005F3FE4F3983ED4F3869577956795B79520
:102F3000F7959F5FC9F7880F911D9695879597F92B
:102F40000895E1E0660F771F881FBB1F62177307A4
:102F50008407BA0720F0621B730B840BBA0BEE1FB9
:102F600088F7E09508950E94BA176894B1110C94FF
:102F7000711808950E94561888F09F5798F0B92F3D
:102F80009927B751B0F0E1F0660F771F881F991F9E
:102F90001AF0BA95C9F714C0B13091F00E947018B8
:102FA000B1E008950C947018672F782F8827B85FC8
:102FB00039F0B93FCCF3869577956795B395D9F7F6
:102FC0003EF490958095709561957F4F8F4F9F4F00
:102FD0000895E89409C097FB3EF49095809570950C
:102FE00061957F4F8F4F9F4F9923A9F0F92F96E955
:102FF000BB279395F695879577956795B795F111CA
:10300000F8CFFAF4BB0F11F460FF1BC06F5F7F4F66
:103010008F4F9F4F16C0882311F096E911C0772378
:1030200021F09EE8872F762F05C0662371F096E881
:10303000862F70E060E02AF09A95660F771F881F50
:10304000DAF7880F9695879597F9089597F99F670E
:1030500080E870E060E008959FEF80EC0895002420
:103060000A941616170618060906089500240A94ED
:1030700012161306140605060895092E0394000C73
:1030800011F4882352F0BB0F40F4BF2B11F460FF02
:1030900004C06F5F7F4F8F4F9F4F089557FD90582B
:1030A000440F551F59F05F3F71F04795880F97FB0C
:1030B000991F61F09F3F79F08795089512161306C6
:1030C0001406551FF2CF4695F1DF08C016161706F5
:1030D0001806991FF1CF869571056105089408952A
:1030E000E894BB2766277727CB0197F908950E94BC
:1030F000E91808F48FEF08950E948F180C943D187A
:103100000E942F1838F00E94361820F0952311F0F5
:103110000C9426180C942C1811240C9471180E94ED
:103120004E1870F3959FC1F3950F50E0551F629FA5
:10313000F001729FBB27F00DB11D639FAA27F00D10
:10314000B11DAA1F649F6627B00DA11D661F829F37
:103150002227B00DA11D621F739FB00DA11D621F1C
:10316000839FA00D611D221F749F3327A00D611D39
:10317000231F849F600D211D822F762F6A2F11241B
:103180009F5750409AF0F1F088234AF0EE0FFF1F4E
:10319000BB1F661F771F881F91505040A9F79E3FA5
:1031A000510580F00C9426180C9471185F3FE4F3DD
:1031B000983ED4F3869577956795B795F795E795FB
:1031C0009F5FC1F7FE2B880F911D9695879597F904
:1031D0000895990F0008550FAA0BE0E8FEEF1616A8
:1031E0001706E807F907C0F012161306E407F507FB
:1031F00098F0621B730B840B950B39F40A2661F06F
:10320000232B242B252B21F408950A2609F4A14011
:10321000A6958FEF811D811D08950F931F93CF9366
:10322000DF938230910510F482E090E0E091290371
:10323000F0912A0330E020E0B0E0A0E0309799F46C
:103240002115310509F44AC0281B390B24303105FA
:10325000D8F58A819B816115710589F1FB01938302
:103260008283FE0111C04081518102811381481780
:103270005907E0F04817590799F4109761F0129632
:103280000C93129713961C933296CF01DF91CF9136
:103290001F910F9108950093290310932A03F4CFEF
:1032A0002115310551F04217530738F0A901DB0110
:1032B0009A01BD01DF01F801C1CFEF01F9CF909371
:1032C0002A0380932903CDCFFE01E20FF31F8193E0
:1032D00091932250310939832883D7CF2091270336
:1032E00030912803232B41F42091180130911901CA
:1032F0003093280320932703209116013091170162
:103300002115310541F42DB73EB740911A01509176
:103310001B01241B350BE0912703F0912803E217D2
:10332000F307A0F42E1B3F0B2817390778F0AC01E8
:103330004E5F5F4F2417350748F04E0F5F1F5093C5
:10334000280340932703819391939FCFF0E0E0E01F
:103350009CCFCF93DF930097E9F0FC013297138263
:103360001282A0912903B0912A03ED0130E020E000
:103370001097A1F420813181820F931F20912703A0
:10338000309128032817390709F061C0F09328030A
:10339000E0932703DF91CF910895EA01CE17DF076D
:1033A000E8F54A815B819E0141155105B1F7E901BC
:1033B000FB83EA8349915991C40FD51FEC17FD0790
:1033C00061F4808191810296840F951FE9019983B0
:1033D0008883828193819B838A83F0E0E0E0129668
:1033E0008D919C9113970097B9F52D913C91119770
:1033F000CD010296820F931F20912703309128035D
:103400002817390739F6309751F510922A03109290
:103410002903B0932803A0932703BCCFD383C2838F
:1034200040815181840F951FC817D90761F44E5F01
:103430005F4F88819981480F591F518340838A814A
:103440009B81938382832115310509F0B0CFF093DE
:103450002A03E09329039ECFFD01DC01C0CF138234
:103460001282D7CF81E090E0F8940C94471AFB01C8
:10347000DC0102C001900D9241505040D8F70895F0
:10348000DC0101C06D9341505040E0F7089511E018
:10349000C2EDD1E004C0FE010E94BF162196C33DDB
:0834A000D107C9F7F894FFCF32
:1034A8006D056D056D056D056D05FFFFFFFF00E1FD
:1034B80000000000000000002B0380001214150417
:1034C8000C00C18081000000000000007D02E804BB
:1034D8009E029302E402A202C002000000002D0B2B
:1034E80000000000A00A00000000690B00000000B6
:1034F800E00600000000010BCF0B9D0A9C0A0000AB
:08350800000049060D0A000055
:00000001FF
