:100000000C94D3010C94B7100C9490100C946910BC
:100010000C9442100C94FB010C94FB010C941B10EB
:100020000C94FB010C94DE100C94300D0C949F0D7D
:100030000C94FB010C94FB010C94FB010C94FB0150
:100040000C94FB010C94FB010C94FB010C94FB0140
:100050000C94FB010C94FB010C94FB010C94D10F4C
:100060000C94FB010C94FB010C94FB010C94FB0120
:100070000C94FB010C94FB010C94FB010C94FB0110
:100080000C94FB010C94FB010C94FB010C94FB0100
:100090000C94FB010C94FB010C94FB010C94FB01F0
:1000A0000C94FB010C94FB010C94FB01000000007C
:1000B0000000004F00000007000700147F147F14A9
:1000C000242A7F2A122313086462364955225000DD
:1000D00000070000001C2241000041221C001408FF
:1000E0003E081408083E08080050300000080808C0
:1000F0000808006060000020100804023E514945D5
:100100003E00427F400042615149462141454B310A
:100110001814127F1027454545393C4A4949300398
:10012000017109073649494936064949291E0036F1
:100130003600000056360000081422410014141442
:100140001414004122140802015109063249794170
:100150003E7E1111117E7F494949363E414141227F
:100160007F4141413E7F494949417F090909013E9B
:100170004149497A7F0808087F00417F41002040BB
:10018000413F017F081422417F404040407F020CE4
:10019000027F7F0408107F3E4141413E7F090909EB
:1001A000063E4151215E7F09192946464949493198
:1001B00001017F01013F4040403F1F2040201F3F81
:1001C0004038403F63140814630708700807615102
:1001D000494543007F41410002040810200041418D
:1001E0007F0004020102044040404040000102043C
:1001F0000020545454787F484444383844444420C0
:10020000384444487F3854545418087E0901020C7D
:100210005252523E7F0804047800447D4000204042
:10022000443D007F1028440000417F40007C0418BA
:1002300004787C0804047838444444387C1414144A
:1002400008081414187C7C080404084854545420EA
:10025000043F4440203C4040207C1C2040201C3C6B
:100260004038403C44281028440C5050503C4464D2
:10027000544C44000836410000007F000000413625
:1002800008000C02040806081C2A080800030C0FCA
:1002900030333C3FC0C3CCCFF0F3FCFF0000000084
:1002A000240027002A002D00300000000000250057
:1002B00028002B002E003100000000002300260043
:1002C00029002C002F000404040404030405020286
:1002D00002020403020202020606060606060404DF
:1002E0000202020404040802011040804010204071
:1002F000804080080204018040201002011080101C
:10030000204040200000000200090F00000304010B
:10031000000C0000000000000000000000000000D1
:10032000000000080B0002020200000904000001A6
:10033000020200000524001001052401010104242B
:100340000206052406000107058103100040090488
:100350000100020A00000007050202400000070534
:1003600083024000000403090412010002EF0201AD
:1003700040FB1F0023000101020301506F6C6F6CF2
:100380007520436F72706F726174696F6E00506F89
:100390006C6F6C7520412D5374617220333255346B
:1003A00000005C11931611241FBECFEFDAE0DEBF10
:1003B000CDBF11E0A0E0B1E0E4E6F5E302C00590B6
:1003C0000D92A836B107D9F723E0A8E6B1E001C045
:1003D0001D92A533B207E1F711E0C2EDD1E004C0F0
:1003E0002197FE010E941D17C13DD107C9F70E9448
:1003F000C4110C94A51A0C9400005B9887FD5D9ABB
:1004000087FF5D985B9A5B9886FD5D9A86FF5D9895
:100410005B9A5B9885FD5D9A85FF5D985B9A5B981A
:1004200084FD5D9A84FF5D985B9A5B9883FD5D9A7D
:1004300083FF5D985B9A5B9882FD5D9A82FF5D9871
:100440005B9A5B9881FD5D9A81FF5D985B9A5B98F2
:1004500080FD5D9A80FF5D985B9A0895FC01809114
:10046000CA01882311F13FB7F89482E08093E90034
:100470002091F200822F90E01816190614F481E002
:1004800090E0882339F0289844E64093C9014091D0
:10049000F1004083222339F02091F200211103C0A2
:1004A0002BE62093E8003FBF08958FEF9FEF08955C
:1004B0002FB7F89483E08093E9009091E800892FAA
:1004C000807295FF04C09091F20080E4891B2FBFD9
:1004D00008958091C10181110DC082E08093BD011A
:1004E00084E08093BE011092C0011092BF0181E0B0
:1004F0008093C1018DEB91E00895CF93DF931F921C
:10050000CDB7DEB76983DC01ED91FC910280F38108
:10051000E02D41E050E0BE016F5F7F4F09950F90E5
:10052000DF91CF91089583E08093E9008091F200FC
:10053000882319F08AE38093E80008950E94580206
:1005400090E00895CF93DF931F92CDB7DEB7FC0103
:100550008485958597FD08C02FEF3FEF3587248769
:100560000F90DF91CF910895CE0101960E942E0247
:10057000019719F4898190E0F3CF8FEF9FEFF0CFCF
:100580000F931F93CF93DF931F92CDB7DEB78C01EC
:10059000FC018485958597FF0BC0CE0101960E94D2
:1005A0002E02019771F4898190E0F8019587848784
:1005B000F801848595850F90DF91CF911F910F9160
:1005C00008958FEF9FEFF1CFFC018485958597FD0E
:1005D0000BC09FB7F89482E08093E9008091F2000D
:1005E0009FBF90E0019608959FB7F89482E08093B2
:1005F000E9008091F2009FBF90E008954091B7011B
:100600005091B8012091B5013091B60142175307BE
:10061000B4F49091E8009570E1F39091E80092FDB8
:1006200019C08093F1008091B7019091B8010196B3
:100630008F739927892B19F48EEF8093E8008091AE
:10064000B7019091B80101969093B8018093B701DA
:1006500081E0089580E00895DF92EF92FF920F937A
:100660001F93CF93DF93D82E8A01EB017B01E40E19
:10067000F51ECE15DF0559F0D7FE12C0FE0184919C
:100680000E94FE0221968111F4CF0FEF1FEFC801E7
:10069000DF91CF911F910F91FF90EF90DF90089520
:1006A0008881EECF0F931F93CF93DF931F92CDB727
:1006B000DEB782E0898342E450E063E273E080E8E1
:1006C0000E942C030E946902DC0112960D911C917C
:1006D0000115110589F0D801ED91FC910280F3819B
:1006E000E02DBE016F5F7F4FC801099597FD04C0E3
:1006F000F80100851185ECCF89810F90DF91CF91B2
:100700001F910F910895615030F02091F100FC018C
:1007100020830196F8CF289884E68093C901089534
:1007200081508F3008F047C0E82FF0E0E656FC4FCC
:100730000C941D17B703BB03A903AF03B303DB037B
:10074000DB03DB03BE03C403C803CC03D203DB0318
:10075000D603809180008F778093800008958091E8
:1007600080008F7DF9CF80918000877FF5CF84B5A1
:100770008F7784BD089584B58F7DFBCF80919000E5
:100780008F77809390000895809190008F7DF9CFAE
:1007900080919000877FF5CF8091C0008F77809304
:1007A000C00008958091C0008F7DF9CF8091C20074
:1007B000877F8093C2000895CF93DF93282F30E086
:1007C000F901EC5FFC4F8491F901EB51FD4FD4919D
:1007D000F901EA53FD4FC491CC23A1F081110E948D
:1007E0009003EC2FF0E0EE0FFF1FE854FD4FA591B2
:1007F000B491EC91ED2381E090E009F480E0DF9189
:10080000CF91089580E090E0FACF1F93CF93DF93CC
:10081000282F30E0F901EC5FFC4F8491F901EB5196
:10082000FD4FD491F901EA53FD4FC491CC23A9F0B7
:10083000162F81110E949003EC2FF0E0EE0FFF1FA6
:10084000E655FD4FA591B4918FB7F894EC91111135
:1008500008C0D095DE23DC938FBFDF91CF911F912D
:100860000895DE2BF8CFCF93DF9390E0FC01EB519E
:10087000FD4F24918A539D4FFC0184918823C9F038
:1008800090E0880F991FFC01E456FD4FA591B491AB
:10089000FC01E655FD4FC591D49161110DC09FB784
:1008A000F8948C91209582238C9388812823288327
:1008B0009FBFDF91CF910895623051F49FB7F894B4
:1008C0003C91822F809583238C93E8812E2BEFCF50
:1008D0008FB7F894EC912E2B2C938FBFEACF809199
:1008E0002C038F3F61F061E00E94330460E080914F
:1008F0002C030E9405048BE193E00197F1F7089522
:1009000080912C038F3F61F061E00E94330461E02D
:1009100080912C030E9405048BE193E00197F1F78D
:1009200008953FB7F8948091B1019091B201A091E0
:10093000B301B091B40126B5A89B05C02F3F19F0B3
:100940000196A11DB11D3FBFBA2FA92F982F88274F
:10095000BC01CD01620F711D811D911D42E0660F2A
:10096000771F881F991F4A95D1F708958F929F92FC
:10097000AF92BF92CF92DF92EF92FF924B015C0158
:100980000E9491046B017C010E9491046C197D0905
:100990008E099F09683E734081059105A8F321E007
:1009A000821A9108A108B10888EEC80E83E0D81E0B
:1009B000E11CF11C81149104A104B10429F7FF90FA
:1009C000EF90DF90CF90BF90AF909F908F90089561
:1009D0008F929F92AF92BF92CF92DF92EF92FF924F
:1009E0000F931F93CF93DF936C017B018A0180915A
:1009F0001501882309F45CC08091CA01882309F499
:100A000057C08091BC0180FF05C08091E0008260EA
:100A10008093E000E801B12C8AEFA82E93E0892EA4
:100A20002AE3922E209711F4BB20D9F10E9458029C
:100A300081110AC0AA94AA20D9F161E070E080E097
:100A400090E00E94B604EECF8C171D0611F00CF05A
:100A50008C2F9FB7F8948092E9002091E80025FD43
:100A600002C09FBFDFCF282F30E0C21BD30BF7019E
:100A7000815020F041914093F100FACFE20EF31E35
:100A8000BB2021F09092E800B12CEBCF8091E800E0
:100A900085FDE7CF9092E800BB24B394209709F33B
:100AA000F3CF5D9884E68093BB01101611063CF0ED
:100AB00081E090E0F6019383828310E000E0C801BA
:100AC000DF91CF911F910F91FF90EF90DF90CF902A
:100AD000BF90AF909F908F90089508952E98269A7A
:100AE0002D98259A2A98229A2998219A80EA80930B
:100AF000800081E18093810080E991E090938700FC
:100B000080938600109289001092880010928B00CA
:100B100010928A0008950F931F93CF93DF938C0157
:100B2000EB0180917D01811105C081E080937D0101
:100B30000E946E0580E017FF04C011950195110910
:100B400081E0013991E0190714F000E911E01093F8
:100B50008B0000938A00882329F12A9A229A809197
:100B60007D01811105C081E080937D010E946E05A9
:100B700080E0D7FF04C0D195C195D10981E0C1398A
:100B800091E0D90714F0C0E9D1E0D0938900C09377
:100B90008800882349F0299A219ADF91CF911F91EB
:100BA0000F9108952A98DACF2998F6CF9FB19170C6
:100BB0008CB186FB882780F9892720917C013091B0
:100BC0007B014091790150917A0128273927231B15
:100BD000330B240F351F30937A0120937901309124
:100BE0007B0120917C01381729F0291719F021E0A9
:100BF0002093780180937B0190937C0108958091EC
:100C00007201811145C081E08093720124982C9A71
:100C10006A98729A6E98769A8098889A80936800FB
:100C200090E190936B008BBB86ED95E0909309016A
:100C30008093080180916A008F7C806180936A00B4
:100C4000EE9A8CB182FB882780F98093770193B16B
:100C50008091770192959170892780937601109207
:100C6000750110927401109273018FB1817080939D
:100C70007C019CB180917C0196FB992790F9892792
:100C800080937B0110927A01109279011092780181
:100C900008957F928F929F92AF92BF92CF92DF92F0
:100CA000EF92FF920F931F93CF93DF93FC01228566
:100CB0003385232B09F476C06B01EC0110E08C85A1
:100CC0001817E8F4E12EF12C8E859F85F701EE0FC1
:100CD000FF1FEC0DFD1D91838083EA85FB85EE0DE2
:100CE000FF1D61E080810E940504EA85FB85EE0D11
:100CF000FF1D61E080810E9433041F5FE0CF83E22B
:100D000090E00197F1F710E08C851817A0F4E12E20
:100D1000F12CEA85FB85EE0DFF1D60E080810E94CD
:100D20003304EA85FB85EE0DFF1D60E080810E94A3
:100D300005041F5FE9CF0E9491044B015C010E94F2
:100D40009104AB01BC01481959096A097B098E85D8
:100D50009F85B0E0A0E0481759076A077B0710F5A8
:100D60000E9491047B01E818F908712C8C85781693
:100D700030F7072D10E0EA85FB85E00FF11F808139
:100D80000E94DC03892B61F4000F111FF601E00FB4
:100D9000F11F80819181E816F90610F4F182E0825A
:100DA0007394E4CFDF91CF911F910F91FF90EF905B
:100DB000DF90CF90BF90AF909F908F907F900895DD
:100DC000CF93DF93EC01888581110EC0898591E076
:100DD00098879A8562E0911101C060E00E94330417
:100DE0008FE090E00197F1F789850E94DC033B8555
:100DF00021E03817190609F420E0822FDF91CF9106
:100E00000895289A209A08952898209A08955F9224
:100E10006F927F928F929F92AF92BF92CF92DF920A
:100E2000EF92FF920F931F93CF93DF935C01D62F26
:100E3000C42FF22E132F0E9404078D2F806B0E9467
:100E4000FD018C2F82958F7080610E94FD018C2F97
:100E50008F700E94FD010E940107CF2DD12F0C0F32
:100E60001D2F111D95E0692EC017D10709F444C04C
:100E70007990872D8052990B9C01629EC001639EE0
:100E8000900D1124769C40011124F12CE12C9C0141
:100E900024553F4F69013FE1371508F5F601EE0D86
:100EA000FF1DE491F0E084E0F595E7958A95E1F780
:100EB000E457FD4F5490852D0E94FD01852D0E9421
:100EC000FD019FEFE91AF90A25E0E216F10419F78E
:100ED00080E00E94FD0180E00E94FD01C5CF87E017
:100EE000E0E08715F8F2F401EE0DFF1DE254FF4F2C
:100EF000EA0DFB1DE081D6CFDF91CF911F910F91BD
:100F0000FF90EF90DF90CF90BF90AF909F908F9029
:100F10007F906F905F9008955F926F927F928F9213
:100F20009F92AF92BF92CF92DF92EF92FF920F9378
:100F30001F93CF93DF935C01D62FC42FF22E132F74
:100F40000E9404078D2F806B0E94FD018C2F8295DB
:100F50008F7080610E94FD018C2F8F700E94FD01B7
:100F60000E940107CF2DD12F0C0F1D2F111D85E0E1
:100F7000682EC017D10709F440C07990872D8052A0
:100F8000990B9C01629EC001639E900D1124769C7A
:100F900040011124F12CE12C9C0124553F4F6901A3
:100FA0003FE13715E8F4F601EE0DFF1DE491EF7017
:100FB000F0E0E457FD4F5490852D0E94FD01852DF2
:100FC0000E94FD019FEFE91AF90A25E0E216F104FB
:100FD00039F780E00E94FD0180E00E94FD01C9CF49
:100FE00087E0E0E0871518F3F401EE0DFF1DE254F1
:100FF000FF4FEA0DFB1DE081DACFDF91CF911F910A
:101000000F91FF90EF90DF90CF90BF90AF909F90A7
:101010008F907F906F905F900895282F21FB0EF0A6
:10102000209820FB0EF028980EF4289A21FB0EF44D
:10103000209A0895282F21FB0EF0559820FB0EF0E2
:101040005D980EF45D9A21FB0EF4559A08958091F7
:10105000A6019091A701019709F088C00E94FF05A1
:10106000F89480917401909175011092750110921D
:10107000740178940E94FF05F89480917901909111
:101080007A0110927A011092790178940E94FF05FA
:10109000F89460917401709175017894072E000C9A
:1010A000880B990B0E94491860936801709369013D
:1010B00080936A0190936B010E94FF05F894609100
:1010C000790170917A017894072E000C880B990BA6
:1010D0000E94491860939A0170939B0180939C0130
:1010E00090939D01209168013091690140916A01BE
:1010F00050916B010E94331720E030E040E05FE345
:101100000E94DA1820E038E44EEE55E40E949F1762
:1011100060939E0170939F018093A0019093A10121
:1011200070E060E090E080E00E948B052FB7F894BB
:101130008091AD019091AE01A091AF01B091B0014D
:101140002FBF409196015091970160919801709145
:101150009901841B950BA60BB70B883C9105A10543
:10116000B10520F01092A7011092A60108950E94E7
:10117000FF05F89460917401709175017894072EC1
:10118000000C880B990B0E944918609368017093BA
:10119000690180936A0190936B010E94FF05F894A6
:1011A0006091790170917A017894072E000C880B78
:1011B000990B0E94491860939A0170939B01809348
:1011C0009C0190939D0120916801309169014091AB
:1011D0006A0150916B010E94331720E030E040E03B
:1011E0005FE30E94DA1820E038E44EEE55E40E94F6
:1011F0009F1760939E0170939F018093A00190932D
:10120000A1010895CF93DF93EC0188810E941A0811
:1012100089810E940D08E9EEF0E010828C818093B4
:10122000F0008B8180838A818093E200DF91CF91EF
:101230000895FC01A2EEB0E08C9182831C92A9EE8D
:10124000B0E08C9183831C92A0EFB0E08C918483FA
:101250001C9220E05D99216055992260208320E056
:10126000289921602099226021835D98559A0895DC
:10127000CF92DF92EF92FF920F93CF93DF93EC0127
:101280007C0184E0E80EF11CC7010E9419096E017F
:1012900084E1C80ED11C08E0960143E162E0CE0172
:1012A0000E948C07960143E163E0CE010E9407078C
:1012B0006E0189E2C80ED11C960143E165E0CE01C2
:1012C0000E948C07960143E166E0CE010E94070769
:1012D000C701DF91CF910F91FF90EF90DF90CF90FA
:1012E0000C940209CF92DF92EF92FF920F93CF936B
:1012F000DF93EC017C0184E0E80EF11CC7010E9441
:1013000019096E0184E1C80ED11C0BE0960142E080
:1013100060E0CE010E948C07960142E061E0CE01C0
:101320000E9407076E0189E2C80ED11C960142E0B7
:1013300062E0CE010E948C07960142E063E0CE019C
:101340000E9407076E018EE3C80ED11C960142E091
:1013500064E0CE010E948C07960142E065E0CE0178
:101360000E9407076E0183E5C80ED11C960142E07A
:1013700066E0CE010E948C07960142E067E0CE0154
:101380000E940707C701DF91CF910F91FF90EF9067
:10139000DF90CF900C940209EF92FF920F931F936E
:1013A000CF93DF938C017C0184E0E80EF11CC70130
:1013B0000E9419090E94040782E00E94FD01C0E01A
:1013C0000E9404078C2F806B0E94FD0180E10E9427
:1013D000FD010E940107D0E080E00E94FD01DF5F77
:1013E000D038D1F7CF5FC83059F7C7010E94020942
:1013F000F8011286DF91CF911F910F91FF90EF902E
:101400000895AF92BF92CF92DF92EF92FF920F9327
:101410001F93CF93DF937C01122F683008F043C0F5
:10142000423008F040C088E0861B8217D0F12223AA
:10143000D1F1C42FCC0FC40FDCE06D9FD02D11244F
:10144000DD5E670124E1C20ED11C862F90E025E10C
:10145000429F800D911D1124C80ED91E570184E0B2
:10146000A80EB11CC5010E94190962E06C0F012F82
:1014700096014D2FC7010E948C0763E06C0F960107
:101480004D2FC7010E940707C501DF91CF911F9122
:101490000F91FF90EF90DF90CF90BF90AF900C94A2
:1014A0000209182FC6CFDF91CF911F910F91FF90A6
:1014B000EF90DF90CF90BF90AF900895AF92BF9222
:1014C000CF92DF92EF92FF920F931F93CF93DF9310
:1014D0007C01D22F6B3008F040C04430F0F58BE037
:1014E000861B8217C0F12223C1F1142F110FCCE00B
:1014F0006C9FC02D1124CE5F670124E1C20ED11C68
:10150000862F90E025E1429F800D911D1124C80E89
:10151000D91E570184E0A80EB11CC5010E9419090B
:101520000D2F96014C2F612FC7010E948C0761E09F
:10153000610F96014C2FC7010E940707C501DF917B
:10154000CF911F910F91FF90EF90DF90CF90BF90C0
:10155000AF900C940209D82FC8CFDF91CF911F9183
:101560000F91FF90EF90DF90CF90BF90AF900895D4
:10157000089590E080E008950E94901ADF92EF9223
:10158000FF920F931F93CF93DF93EC01F62EE42E7F
:10159000D22E898581112DC05B98539A5A98529A00
:1015A00085E38A95F1F700005A9A529AA5E3AA9525
:1015B000F1F70000CE010E94CC098E010C5F1F4F95
:1015C000C8010E9419090E94040781EA0E94FD01D6
:1015D00088EC0E94FD0181E80E94FD018FEF0E94CE
:1015E000FD018FEA0E94FD01C8010E94020981E00D
:1015F00089878A85882319F0CE010E94CC092A891F
:101600003B89C901959587958C0F9D1FE889F989BC
:1016100020FF08C0DC012D913C91E20FF31F0190E7
:10162000F081E02D2D2D4E2D6F2DDF91CF911F914B
:101630000F91FF90EF90DF900994CF93DF93DC013F
:10164000A354BF4F2C91283008F5EC01C454DF4F50
:10165000E881E531D8F4AC0175E1279F400D511DBB
:101660001124E40FF52FF11D648BFC01238521115A
:1016700005C021E04C9168810E94BE0A88818F5F7D
:10168000888381E090E0DF91CF91089590E080E041
:10169000FACFAF92BF92CF92DF92EF92FF920F9369
:1016A0001F93CF93DF9382EEE82EF12CF701008198
:1016B0001082C9EED0E0B880188290EFC92ED12CEC
:1016C000F601A080108220E02899216020992260F4
:1016D000822F2098289A90E19A95F1F713B10E94F1
:1016E0000D081882F601A082B882F7010083812FCD
:1016F00080958170DF91CF911F910F91FF90EF90B6
:10170000DF90CF90BF90AF900895AF92BF92CF92ED
:10171000DF92EF92FF920F931F93CF93DF9382EEAE
:10172000E82EF12CF701D081108209EE10E0F801CB
:10173000B080108290EFC92ED12CF601A0801082CB
:1017400020E05D99216055992260822F55985D9A1D
:1017500090E19A95F1F7C9B10E941A08F801108238
:10176000F601A082F801B082F701D0838C2F90E0BF
:1017700025E0959587952A95E1F78095909581705C
:10178000DF91CF911F910F91FF90EF90DF90CF905D
:10179000BF90AF9008958BE292E00E94E00690E047
:1017A000909371018093700183E292E00E94850B17
:1017B000209170013091710140916E0150916F0143
:1017C0002417350779F190E040916C0150916D013B
:1017D0008417950739F130936F0120936E01909330
:1017E0006D0180936C018BE292E00E94E0068823F9
:1017F000C9F083E292E00E94850B882399F08091E2
:10180000AA019091AB01009739F481E090E09093A8
:10181000AB018093AA010895019721F41092AB01C6
:101820001092AA010895BF92CF92DF92EF92FF9299
:101830000F931F93CF93DF938C01EA016C012DEB83
:10184000C20ED11CF60130813830D8F57C01FCEB9A
:10185000EF0EF11CF7018081853198F525E1281BF9
:1018600090E02417150620F4C5E1D0E0C81BD90B81
:10187000F5E13F9F800D911D1124AE0198012C5E72
:101880003F4F820F931F0E94951ABC2EF80183854B
:10189000811108C02C2FF6014081F7016081C80139
:1018A0000E94BE0AF70180818B0D8083CE01DF91FB
:1018B000CF911F910F91FF90EF90DF90CF90BF904D
:1018C0000895D0E0C0E0F2CF8F929F92AF92BF9286
:1018D0000F931F93CF93DF93CDB7DEB7A1970FB6CA
:1018E000F894DEBF0FBECDBF19A2423008F44AE023
:1018F0008E010F5D1F4F842E912CB12CA12CA501C0
:1019000094010E94EC16E62FB901CA01EA3044F5B1
:10191000E05DD801EE938D01232B242B252B79F745
:1019200090E080E0109769F0FD0101900020E9F758
:101930003197AF014A1B5B0BBD0187E392E00E9428
:10194000130CA1960FB6F894DEBF0FBECDBFDF918A
:10195000CF911F910F91BF90AF909F908F9008955E
:10196000E95CD7CF42E050E064E671E087E392E0C3
:101970000C94130CCF93DF93BC0190E080E04AE01D
:101980000E94640CEC010E94B20C8C0F9D1FDF9131
:10199000CF910895CF92DF92EF92FF921F93CF9352
:1019A000DF93C3E0C093F3021092F40280919001A0
:1019B000909191010E94BA0CD5E0D093F30211E00E
:1019C0001093F40280919401909195010E94BA0CB9
:1019D0001092F3021093F40280918C0190918D018A
:1019E0000E94BA0CD093F302D2E0D093F40280911B
:1019F0009201909193010E94BA0C1092F302D0933D
:101A0000F40280918E0190918F010E94BA0C109285
:101A1000F302C093F402C090AA01D090AB010D2C48
:101A2000000CEE08FF084AE0C701B601F7FE0DC042
:101A30006DE287E392E00E941D0B66277727CB01BA
:101A40006C197D098E099F094AE00E94640CDF91A0
:101A5000CF911F91FF90EF90DF90CF900C94B20C3C
:101A60001F920F920FB60F9211248F939F93809124
:101A7000E1009091E100937F9093E10083FF0FC01C
:101A80001092E90091E09093EB001092EC0092E349
:101A90009093ED001092CA0198E09093F00082FFBD
:101AA00022C093E09093E9009091F200992319F0FD
:101AB0009AE39093E8009091BB01992341F09091B3
:101AC000BB0191509093BB01911101C05D9A90911F
:101AD000C901992341F09091C90191509093C90196
:101AE000911101C0289A84FF18C08091E2008E7E77
:101AF00081608093E2008091E1008F7E8093E1001D
:101B00008091BC018E7E80618093BC019F918F91FA
:101B10000F900FBE0F901F90189580FFF7CF809108
:101B2000E2008E7E80618093E2008091E1008E7EF3
:101B30008093E1008091BC018E7E8160E5CF1F9291
:101B40000F920FB60F921124CF92DF92EF92FF9275
:101B50000F931F932F933F934F935F936F937F93B5
:101B60008F939F93AF93BF93EF93FF93CF93DF93A5
:101B7000CDB7DEB76C97DEBFCDBF1092E900809184
:101B8000E80083FF25C068E0CE0145960E948303EC
:101B900082EF8093E8008D8987FF39C09091E8003B
:101BA00090FFFCCF982F907609F034C19E894F8921
:101BB000588D2F89F88C911131C0803861F5809152
:101BC000BA018093F1001092F1008EEF8093E8004B
:101BD0006C960FB6F894DEBF0FBECDBFDF91CF91EC
:101BE000FF91EF91BF91AF919F918F917F916F91F5
:101BF0005F914F913F912F911F910F91FF90EF9027
:101C0000DF90CF900F900FBE0F901F9018959EEF12
:101C10009093E800C7CF1092F100D5CF913059F4DE
:101C20008111D3CF4130510581F68091BA018D7F6A
:101C30008093BA01CACF933049F48111C6CF4130A5
:101C4000510519F68091BA018260F2CF953041F4C6
:101C50008091E80080FFFCCF20682093E300B5CF9F
:101C6000963009F0A9C00B8D1C8D22E01092E9007E
:101C70001092B8011092B701F2122EC01092B60164
:101C80001092B5010E9452031F8299E09983FA8253
:101C900091E09E8390EA98879AEF99872091B70107
:101CA0003091B801275F3F4F3C832B838D83109287
:101CB000E9001092B8011092B7011093B601009399
:101CC000B50149E050E0BE016F5F7F4F80E00E94A8
:101CD0002C030E94520379CF1093B6010093B501F3
:101CE0000E946902DC0112960D911C9101151105EB
:101CF00009F451C1D801ED91FC910480F581E02DEA
:101D0000BE016B5E7F4FC8010995009709F03EC187
:101D1000F80100851185EACFF3E0FF120EC08F892C
:101D2000882309F440C0823061F440E862E18EE823
:101D300093E00E942911811148CF81E28093EB004A
:101D400047CF813029F440E862E18BE793E0F1CF9F
:101D5000833099F70E946902DC011296ED90FC90A5
:101D60008E010F5F1F4F6801E114F10479F0D70174
:101D7000ED91FC910680F781E02DB801C70109952E
:101D8000080F111DF701E084F184EECFD8011C92F9
:101D9000F60101900020E9F73197BF016C197D0928
:101DA00040E0C601C6CF65E673E0FB01449150E018
:101DB00080E80E942C0309CF973009F4BECF9830F9
:101DC00021F481E08093F10000CF993009F0FDCE3D
:101DD000837009F0B2CFE2E2F1E081E031E096E316
:101DE0002191222371F08093E9003093EB00DF0111
:101DF00011972C912093EC009093ED008F5F87302A
:101E000079F78EE78093EA001092EA008F89809339
:101E1000CA01DBCE8B8D9C8D1092E9001092B80127
:101E20001092B7019093B6018093B501898D81110D
:101E300092C08E899D89913A49F4813209F07DCF13
:101E400047E050E06EE071E080E0B3CF913209F0FE
:101E500074CF833269F48F89988DB0E0A0E08093CD
:101E60000A0190930B01A0930C01B0930D01ADCE2C
:101E7000803269F48091E80082FFFCCF67E08EE059
:101E800091E00E9483038BEF8093E8009ECE823224
:101E900009F09BCE8F8980931501EEEFFFE78591C6
:101EA00094918B3F9C4D51F1E0E0F8E080910E0160
:101EB00090910F01A0911001B0911101803B9440CD
:101EC000A105B105F1F48091150180FD1AC0EE3F26
:101ED0008AE0F80789F587E797E791838083809107
:101EE00060008093B90188E19BE00FB6F894A89553
:101EF000809360000FBE9093600067CEEEEFFAE033
:101F0000D5CF808191818737974709F05ECEA8951C
:101F1000809160008861809360008091B901809316
:101F20006000EE3F2AE0F20789F08091FE0A90916E
:101F3000FF0A9183808349CE8081918187379807FA
:101F400051F29093FF0A8093FE0AC5CF1092FF0AC8
:101F50001092FE0A3ACE0E946902DC0112960D919F
:101F60001C910115110509F4E8CED801ED91FC9101
:101F70000190F081E02DBE016B5E7F4FC801099595
:101F8000811123CEF80100851185EBCF18161906B3
:101F90000CF41BCED2CEF1E0FF12BECE69E673E0A8
:101FA00004CF1F920F920FB60F9211242F933F93DD
:101FB0008F939F93AF93BF938091AD019091AE01AA
:101FC000A091AF01B091B0013091AC0123E0230F9B
:101FD0002D3758F50196A11DB11D2093AC018093BA
:101FE000AD019093AE01A093AF01B093B001809189
:101FF000B1019091B201A091B301B091B4010196E9
:10200000A11DB11D8093B1019093B201A093B301C2
:10201000B093B401BF91AF919F918F913F912F9158
:102020000F900FBE0F901F90189526E8230F029671
:10203000A11DB11DD2CF1F920F920FB60F92112486
:102040002F933F934F935F936F937F938F939F93C0
:10205000AF93BF93EF93FF93E0910801F0910901D3
:102060000995FF91EF91BF91AF919F918F917F91D2
:102070006F915F914F913F912F910F900FBE0F90F5
:102080001F9018951F920F920FB60F9211242F9345
:102090003F934F935F936F937F938F939F93AF93F0
:1020A000BF93EF93FF93E0910601F091070109952B
:1020B000FF91EF91BF91AF919F918F917F916F9120
:1020C0005F914F913F912F910F900FBE0F901F90F6
:1020D00018951F920F920FB60F9211242F933F93D2
:1020E0004F935F936F937F938F939F93AF93BF9320
:1020F000EF93FF93E0910401F09105010995FF91A1
:10210000EF91BF91AF919F918F917F916F915F916F
:102110004F913F912F910F900FBE0F901F901895E8
:102120001F920F920FB60F9211242F933F934F934C
:102130005F936F937F938F939F93AF93BF93EF932F
:10214000FF93E0910201F09103010995FF91EF9156
:10215000BF91AF919F918F917F916F915F914F91BF
:102160003F912F910F900FBE0F901F9018951F92C7
:102170000F920FB60F9211242F933F934F935F93BB
:102180006F937F938F939F93AF93BF93EF93FF933F
:10219000E0910001F09101010995FF91EF91BF914C
:1021A000AF919F918F917F916F915F914F913F91EF
:1021B0002F910F900FBE0F901F9018951F920F92A6
:1021C0000FB60F9211242F933F934F936F937F93EA
:1021D0008F939F938CB1282F30E0359527953595B7
:1021E0002795422F417083B190E064E095958795E3
:1021F0006A95E1F7822781702091770190917601AD
:10220000609174017091750128279427291B330B65
:10221000260F371F309375012093740120917601AA
:1022200090917701281729F0941719F091E0909375
:10223000730180937601409377019F918F917F91F5
:102240006F914F913F912F910F900FBE0F901F9064
:102250001895EF92FF920F931F93CF93DF93F82E71
:10226000192FE62E042F81E0860F880F0E94FE02B0
:1022700083E00E94FE02CF2DD12FEC0EFD2EF11C2B
:10228000CE15DF05B9F007FF13C0FE0184910E944F
:10229000FE02182F80E00E94FE0281232196811108
:1022A000EFCFDF91CF911F910F91FF90EF900895A5
:1022B0008881EDCF81E0F5CFCF93DF93EBECF1E0B8
:1022C0001382128288EE93E0A0E0B0E084839583CD
:1022D000A683B7838CE291E0918380838FEF9FEF99
:1022E00095878487EFE1F3E01382128215821482CE
:1022F00017821682118610861386128682E691E076
:1023000091838083C7E3D2E01B821A8248EA50E0BF
:1023100060E270E08BE492E00E949E1A10921E032D
:1023200010921D0388E399E09D878C871F861E8687
:1023300081E09AE0998B888B1B8A1A8A81E08A87D0
:1023400026E531E039832883EBE2F2E01282158240
:1023500010869EE091878287838780E591E0918354
:102360008083E3E2F2E0128215828AE491E09183B5
:102370008083EBE1F2E0128215828EE391E091839B
:102380008083DF91CF910895CF93DF93CDB7DEB7F0
:10239000C556D1090FB6F894DEBF0FBECDBF7894F5
:1023A00084B5826084BD84B5816084BD85B582605A
:1023B00085BD85B5816085BD80916E00816080930B
:1023C0006E00109281008091810082608093810074
:1023D0008091810081608093810080918000816084
:1023E0008093800080919100826080939100809121
:1023F0009100816080939100809190008160809332
:1024000090008091C10084608093C1008091C100E0
:1024100082608093C1008091C10081608093C1007F
:102420008091C30081608093C3008091C00082606E
:102430008093C0008091C20081608093C20080912F
:102440007A00846080937A0080917A008260809321
:102450007A0080917A00816080937A0080917A007E
:10246000806880937A001092CA011092BA0110928B
:10247000BC018091D70081608093D70080EA80936F
:10248000D80089B5806189BD89B5826089BD89B56B
:10249000082F0170A2960FAFA29780FFF8CF61E0DE
:1024A00070E080E090E00E94B6048091D8008F7CBC
:1024B00080618093D8008091E000807F8093E0006D
:1024C0008091E1008E7E8093E1008DE08093E200B8
:1024D000559A209A85E0ECE1F1E0DE011196019039
:1024E0000D928A95E1F71092220310922103109227
:1024F00024031092230310922603109225031092B6
:102500002803109227031092300310922F0385E0C6
:1025100080932B038091290390912A03892BC9F082
:1025200080E090912B03891708F066C0282F30E0D7
:10253000E0912903F0912A03E20FF31F41E050E0FC
:102540004C0F5D1F240F351FD9019C9190838F5F25
:10255000E8CF85E090E00E946B1990932A03809366
:102560002903892BE9F680ED97E090932E03809361
:102570002D0310921E0310921D0382E799E09093A1
:1025800044028093430210924602109245028EE567
:102590009AE0909348028093470210924A02109268
:1025A000490281E08093410268EE73E080E090E0B0
:1025B0000E94B604EDE8EE2EF12C80912303909159
:1025C0002403892BE9F400912B0310E0C801880F44
:1025D000991F0E946B199093240380932303009703
:1025E00009F4ADC0FC0190E080E08017910744F44D
:1025F000119211920196F9CF8BE080932C03B3CF07
:102600008091210390912203892BE9F400912B03FF
:1026100010E0C801880F991F0E946B199093220344
:1026200080932103009709F48AC020912D033091F3
:102630002E03FC0190E080E08017910724F42193A1
:1026400031930196F9CF10E000E00E948004BE01B2
:102650006F5B7F4F8FE193E00E9449060E946F04F9
:1026600080902B03912CFE0131965F019E012F5D1E
:102670003F4FBE016F5B7F4F3901DF0150E040E00B
:102680004815590524F5FB0181919191BF01011570
:10269000110599F0F301C080D180C816D90668F001
:1026A000CD90DC9011978C159D0568F04F5F5F4FC2
:1026B0001296F2E06F0E711CE3CFF30191838083D9
:1026C0000115110569F711969C938E93EFCF0F5F5B
:1026D0001F4F0A30110509F0B8CFA0912103B09126
:1026E0002203009123031091240390E080E04091A5
:1026F0002B034817190619F114F1F5014191519175
:102700005F01F801619171918F016417750730F4D1
:10271000BF0162507109FB0151834083F90141916E
:1027200051919F016D917D914617570730F4BD017E
:1027300062507109FB01518340830196D8CF68EC48
:1027400070E088E39FEF0E948B05F1E0EF1AF1083B
:1027500009F033CF70E060E090E080E00E948B05EC
:1027600066E970E080E090E00E94B60422242394A1
:10277000312C0091AA011091AB010115110559F0FE
:102780000130110509F4C5C180E090E0892B89F37F
:102790000E940000EECF0E94CA0C8091210390910C
:1027A0002203892B09F454C08091230390912403C0
:1027B000892B09F44DC00E9480046CE871E08FE120
:1027C00093E00E9449060E946F0460902B03712CD5
:1027D0004CE8C42E41E0D42E809023039090240333
:1027E000A0902103B0902203F12CE12CE614F70411
:1027F0007CF5D401ED91FD914D01D5018D919D9117
:102800005D01E81BF90BD1F0D6012D913C9150E010
:1028100040E0281B390B41095109A8EEB3E00E94A2
:10282000E1169F0150E040E00E94C216293EB3E04D
:102830003B0714F028EE33E037FF02C030E020E021
:10284000F601219331936F01FFEFEF1AFF0ACECF0C
:10285000E0912B033CE8A32E31E0B32ED12CC12C08
:1028600050E040E0412C512C3201912CF0E0EF1768
:1028700001F1D501ED90FD905D01B9ECEB16F1048D
:10288000A4F423E3E216F10454F09601D7010E9468
:102890002317460E571E681E791E4E0D5F1DFF5FE3
:1028A00038E1C31A3CEFD30AE2CFA2969FACA297BD
:1028B000ECCF911021C1E150FF0B44EF51E0E49FB8
:1028C000C001E59F900DF49F900D112420912F03DE
:1028D00030913003281739074CF088EE93E0E89FD9
:1028E0008001E99F100DF89F100D112410938B01AA
:1028F00000938A0124E630E0D8010E942B1720EAD9
:102900003FE040E050E00E94C216CA01B9010E94B7
:10291000491820E030E048EC52E40E949F172B0158
:102920003C0140928601509287016092880170922A
:1029300089019801ACE9BFEF0E94231720EA3FE02C
:1029400040E050E00E94C216CA01B9016C597F4FA5
:102950008F4F9F4F0E94491820E030E048EC52E42E
:102960000E949F174B015C01005D1740809184011C
:1029700090918501D801A81BB90BBD01660F771F87
:102980006A0F7B1F072E000C880B990B0E944918B9
:102990006B017C01B801012E000C880B990B0E9481
:1029A000491820E030E040E85EE30E94DA189B011D
:1029B000AC01C701B6010E9433170E941118109391
:1029C000850100938401072E000C880B990B0E944F
:1029D00049186B017C0120E030E048EC52E4C5016D
:1029E000B4010E94DA18A6966CAF7DAF8EAF9FAF90
:1029F000A697A7019601C501B4010E94DA189B01B0
:102A0000AC01A6966CAD7DAD8EAD9FADA6970E9434
:102A100032170E9411188B016536710514F004E617
:102A200010E017FF02C010E000E020E030E048ECCA
:102A300052E4C301B2010E94DA184B015C01A70104
:102A40009601C301B2010E94DA189B01AC01C501D5
:102A5000B4010E9433170E941118CB01653671052D
:102A600014F084E690E097FF02C090E080E0B801A7
:102A70000E948B0580918C0190918D01883E93403E
:102A8000C0F18091940190919501883E934088F126
:102A90002FB7F8948091AD019091AE01A091AF0154
:102AA000B091B0012FBF40918001509181016091A0
:102AB0008201709183018C019D01041B150B260B73
:102AC000370BB901A801443651056105710588F03D
:102AD0008093800190938101A0938201B093830140
:102AE00080917E0190917F01019690937F01809368
:102AF0007E010E94CB0B48CE9A0150E040E0C3011A
:102B0000B2010E94EC1689013093300320932F0309
:102B1000EDCE0E94CA0C8BE292E00E94E006882370
:102B200009F448C01093A9010093A8011093A701CC
:102B30000093A6011092A5011092A4018091A80112
:102B40009091A9018230910509F495C083309105D7
:102B500009F49AC0019769F60E94B7088091A40110
:102B60009091A501009709F44CC0019711F60E94BD
:102B700027088091A6019091A701892B31F464E682
:102B800070E08CE99FEF0E948B0520E030E046E189
:102B900054E460919A0170919B0180919C01909105
:102BA0009D010E94D51887FDA4CF1092A501109217
:102BB000A40149C083E292E00E94850B882359F06A
:102BC00022E030E03093A9012093A8011093A701DF
:102BD0000093A601B3CF8BE192E00E94490B8823BA
:102BE00009F4ACCF43E050E05093A9014093A80111
:102BF0001093A7010093A6011092A3011092A201C5
:102C00009DCF0E9427088091A6019091A701892B52
:102C100031F464E670E084E690E00E948B052AE9D6
:102C200039E949E95EE360919E0170919F018091CD
:102C3000A0019091A1010E94D51887FD5ACF309232
:102C4000A5012092A4013092A7012092A6012FB7DE
:102C5000F8948091AD019091AE01A091AF01B09137
:102C6000B0012FBF8093960190939701A093980194
:102C7000B09399013ECF0E94270868EC70E084E68B
:102C800090E00E948B0535CF0E94B7080091A20109
:102C90001091A3010115110529F10130110509F069
:102CA00028CF0E94270864E670E08CE99FEF0E941D
:102CB0008B0520E030E046E954E460919A01709180
:102CC0009B0180919C0190919D010E94D51887FDE8
:102CD00010CF1092A3011092A2011093A7010093AC
:102CE000A60107CF0E94270864E670E084E690E022
:102CF0000E948B052AE939E949E95EE360919E016A
:102D000070919F018091A0019091A1010E94D5181E
:102D100087FDEFCE3092A3012092A2013092A7014D
:102D20002092A601E6CE84E491E090932003809364
:102D30001F038091290390912A03009711F00E94AC
:102D4000071A8091230390912403009711F00E94A9
:102D5000071A8091270390912803009711F00E9491
:102D6000071A8091210390912203009711F00E948D
:102D7000071A8091250390912603009711F00C9477
:102D8000071A0895052E97FB1EF400940E94D91689
:102D900057FD07D00E94EC1607FC03D04EF40C94AC
:102DA000D91650954095309521953F4F4F4F5F4F25
:102DB000089590958095709561957F4F8F4F9F4FA7
:102DC00008950E940E17A59F900DB49F900DA49F8B
:102DD000800D911D11240895A1E21A2EAA1BBB1B80
:102DE000FD010DC0AA1FBB1FEE1FFF1FA217B307D7
:102DF000E407F50720F0A21BB30BE40BF50B661FED
:102E0000771F881F991F1A9469F7609570958095B0
:102E100090959B01AC01BD01CF010895A29FB00127
:102E2000B39FC001A39F700D811D1124911DB29FFE
:102E3000700D811D1124911D0895EE0FFF1F059047
:102E4000F491E02D09940E940E17332312F48A1B8B
:102E50009B0B0C942D170E940E17B7FF0895821B31
:102E6000930B08955058BB27AA270E944A170C9429
:102E70009B180E948D1838F00E94941820F039F4A5
:102E80009F3F19F426F40C948A180EF4E095E7FBA2
:102E90000C948418E92F0E94AC1858F3BA176207F3
:102EA00073078407950720F079F4A6F50C94CE18E3
:102EB0000EF4E0950B2EBA2FA02D0B01B901900155
:102EC0000C01CA01A0011124FF27591B99F0593F99
:102ED00050F4503E68F11A16F040A22F232F342FE1
:102EE0004427585FF3CF469537952795A795F0402F
:102EF0005395C9F77EF41F16BA0B620B730B840B44
:102F0000BAF09150A1F0FF0FBB1F661F771F881FFB
:102F1000C2F70EC0BA0F621F731F841F48F4879553
:102F200077956795B795F7959E3F08F0B0CF939545
:102F3000880F08F09927EE0F9795879508950E94BE
:102F4000B3170C949B180E94941858F00E948D1887
:102F500040F029F45F3F29F00C94841851110C942F
:102F6000CF180C948A180E94AC1868F39923B1F317
:102F7000552391F3951B550BBB27AA27621773079F
:102F8000840738F09F5F5F4F220F331F441FAA1F33
:102F9000A9F335D00E2E3AF0E0E832D091505040EF
:102FA000E695001CCAF72BD0FE2F29D0660F771F9D
:102FB000881FBB1F261737074807AB07B0E809F083
:102FC000BB0B802DBF01FF2793585F4F3AF09E3F08
:102FD000510578F00C9484180C94CF185F3FE4F3FB
:102FE000983ED4F3869577956795B795F7959F5F4B
:102FF000C9F7880F911D9695879597F90895E1E097
:10300000660F771F881FBB1F621773078407BA07F5
:1030100020F0621B730B840BBA0BEE1F88F7E09550
:1030200008950E9418186894B1110C94CF1808954F
:103030000E94B41888F09F5798F0B92F9927B7517C
:10304000B0F0E1F0660F771F881F991F1AF0BA954C
:10305000C9F714C0B13091F00E94CE18B1E00895C4
:103060000C94CE18672F782F8827B85F39F0B93FB6
:10307000CCF3869577956795B395D9F73EF49095FF
:103080008095709561957F4F8F4F9F4F0895E8947D
:1030900009C097FB3EF490958095709561957F4FA0
:1030A0008F4F9F4F9923A9F0F92F96E9BB2793954E
:1030B000F695879577956795B795F111F8CFFAF45E
:1030C000BB0F11F460FF1BC06F5F7F4F8F4F9F4F8F
:1030D00016C0882311F096E911C0772321F09EE8ED
:1030E000872F762F05C0662371F096E8862F70E053
:1030F00060E02AF09A95660F771F881FDAF7880F2D
:103100009695879597F9089597F99F6780E870E0FD
:1031100060E008959FEF80EC089500240A9416164D
:10312000170618060906089500240A9412161306B5
:10313000140605060895092E0394000C11F4882343
:1031400052F0BB0F40F4BF2B11F460FF04C06F5F5F
:103150007F4F8F4F9F4F089557FD9058440F551F35
:1031600059F05F3F71F04795880F97FB991F61F009
:103170009F3F79F087950895121613061406551F80
:10318000F2CF4695F1DF08C0161617061806991FEC
:10319000F1CF86957105610508940895E894BB27E1
:1031A00066277727CB0197F908950E94471908F4FD
:1031B0008FEF08950E94ED180C949B180E948D18B3
:1031C00038F00E94941820F0952311F00C94841884
:1031D0000C948A1811240C94CF180E94AC1870F328
:1031E000959FC1F3950F50E0551F629FF001729FAC
:1031F000BB27F00DB11D639FAA27F00DB11DAA1FBB
:10320000649F6627B00DA11D661F829F2227B00D07
:10321000A11D621F739FB00DA11D621F839FA00D92
:10322000611D221F749F3327A00D611D231F849FE2
:10323000600D211D822F762F6A2F11249F57504039
:103240009AF0F1F088234AF0EE0FFF1FBB1F661FB4
:10325000771F881F91505040A9F79E3F510580F07D
:103260000C9484180C94CF185F3FE4F3983ED4F389
:10327000869577956795B795F795E7959F5FC1F721
:10328000FE2B880F911D9695879597F90895990FB4
:103290000008550FAA0BE0E8FEEF16161706E80720
:1032A000F907C0F012161306E407F50798F0621B41
:1032B000730B840B950B39F40A2661F0232B242B16
:1032C000252B21F408950A2609F4A140A6958FEF35
:1032D000811D811D08950F931F93CF93DF9382303B
:1032E000910510F482E090E0E0913303F091340313
:1032F00030E020E0B0E0A0E0309799F421153105EE
:1033000009F44AC0281B390B24303105D8F58A81CD
:103310009B816115710589F1FB0193838283FE0115
:1033200011C0408151810281138148175907E0F093
:103330004817590799F4109761F012960C93129759
:1033400013961C933296CF01DF91CF911F910F916D
:1033500008950093330310933403F4CF21153105FE
:1033600051F04217530738F0A901DB019A01BD0162
:10337000DF01F801C1CFEF01F9CF909334038093BF
:103380003303CDCFFE01E20FF31F819391932250BF
:10339000310939832883D7CF20913103309132030B
:1033A000232B41F4209118013091190130933203FD
:1033B0002093310320911601309117012115310519
:1033C00041F42DB73EB740911A0150911B01241BC7
:1033D000350BE0913103F0913203E217F307A0F4CB
:1033E0002E1B3F0B2817390778F0AC014E5F5F4F5B
:1033F0002417350748F04E0F5F1F50933203409358
:103400003103819391939FCFF0E0E0E09CCFCF9385
:10341000DF930097E9F0FC01329713821282A091AA
:103420003303B0913403ED0130E020E01097A1F4B4
:1034300020813181820F931F20913103309132031B
:103440002817390709F061C0F0933203E093310384
:10345000DF91CF910895EA01CE17DF07E8F54A81A1
:103460005B819E0141155105B1F7E901FB83EA83B8
:1034700049915991C40FD51FEC17FD0761F4808164
:1034800091810296840F951FE90199838883828137
:1034900093819B838A83F0E0E0E012968D919C916A
:1034A00013970097B9F52D913C911197CD01029694
:1034B000820F931F2091310330913203281739076F
:1034C00039F6309751F51092340310923303B093CC
:1034D0003203A0933103BCCFD383C2834081518197
:1034E000840F951FC817D90761F44E5F5F4F88811D
:1034F0009981480F591F518340838A819B8193830F
:1035000082832115310509F0B0CFF0933403E093A5
:1035100033039ECFFD01DC01C0CF13821282D7CFCF
:1035200081E090E0F8940C94A51AFB01DC0102C044
:1035300001900D9241505040D8F70895DC0101C030
:103540006D9341505040E0F7089511E0C2EDD1E095
:1035500004C0FE010E941D172196C33DD107C9F783
:04356000F894FFCF0D
:103564006D056D056D056D056D05FFFFFFFF00E140
:103574000000000000000000350380001214150450
:103584000C00C18081000000000000007D02E804FE
:103594009E029302E402A202C00200000000490B52
:1035A40000000000BC0A00000000850B00000000C1
:1035B400E006000000001D0B130CB90AB80A000055
:0835C400000049060D0A000099
:00000001FF
